:0200000270008C
:10200000000002205D230700452307004723070047
:10201000492307004B2307004D2307000000000061
:102020000000000000000000000000003D4F07001D
:102030005123070000000000532307005523070029
:10204000572307005723070057230700572307008C
:10205000572307005723070057230700572307007C
:10206000572307005723070057230700572307006C
:10207000572307005723070057230700572307005C
:102080000D71070057230700572307005723070048
:102090005723070057230700C59E07005723070053
:1020A000572307005723070057230700572307002C
:1020B000572307005723070000000000000000001E
:1020C000572307005723070057230700572307000C
:1020D000716A07005723070057230700572307009B
:1020E000572307000000000000000000000000006F
:1020F00000000000572307000000000057230700DE
:1021000000000000000000000000000000000000CF
:1021100000000000000000000000000000000000BF
:1021200000000000000000000000000000000000AF
:10213000000000000000000000000000000000009F
:10214000000000000000000000000000000000008F
:10215000000000000000000000000000000000007F
:10216000000000000000000000000000000000006F
:10217000000000000000000000000000000000005F
:10218000000000000000000000000000000000004F
:10219000000000000000000000000000000000003F
:1021A000000000000000000000000000000000002F
:1021B000000000000000000000000000000000001F
:1021C000000000000000000000000000000000000F
:1021D00000000000000000000000000000000000FF
:1021E00000000000000000000000000000000000EF
:1021F00000000000000000000000000000000000DF
:10220000314932480A1A02D0072291438D4630499B
:1022100030480A1A06D00722914381F30988022226
:1022200082F314882C482D492D4A00F03CF82D48A3
:102230002D492E4A00F037F82D482E492E4A00F03D
:1022400032F82E482E492F4A00F02DF82E482F49FB
:102250002F4A00F028F82F482F49304A00F023F881
:102260002F483049304A00F01EF8304830490022EB
:1022700000F024F82F483049002200F01FF82F4AC0
:1022800090471F481F49884205D00268043003B4B4
:10229000904703BCF7E700208646EC46002000216B
:1022A000274A9047FEE7884207D0521A05D00378A4
:1022B00001300B700131013AF9D17047884202D0E8
:1022C00002700130FAE770470000022000F8012098
:1022D0000000022000000220A0DB0700FC2A0020F2
:1022E000502B0020B8230700B82307002CA40700B8
:1022F000A0DB0700FC2A0020FC2A00202CA50700F8
:102300002CA507002CA507002CA507002CA507006D
:102310002CA507002CA507002CA507009EDB0700B5
:10232000F4DB0700502B0020502B0020502B002006
:102330005C7300205C7300205C7300208523070021
:1023400099520700FEE7FEE7FEE7FEE7FEE7FEE73D
:10235000FEE7FEE7FEE7FEE700F002B8FFF7FCBF8E
:102360000F484FF00701884385460E4880470E48C6
:10237000016841F470010160BFF34F8FBFF36F8FAD
:10238000FFF73EBF09480A490A4A884207D0521A55
:1023900005D0037801300B700131013AF9D1704753
:1023A00000000220D571070088ED00E018A50700A5
:0823B000E82A0020FC2A0020AD
:1023B8007047000007B5044B0093044A402300F01F
:1023C80032F803B05DF804FBD9230700512B002035
:1023D8002DE9F84388461446B2B10F4B0F4E03253A
:1023E800002743F00109224608EB0701002003F00B
:1023F800E1FF0744241A48B933782BB14FF47A40E7
:10240800C847013D02D13570BDE8F8830123337018
:10241800002CE8D1F8E700BF30A50700502B0020BA
:10242800704703F0F7BFF0B595B01D46164608464D
:102438000C4601F02AFD1A9B0D93CDE9086500258D
:102448002B46082205A920460A958DF82C500C9594
:1024580001F042FD079B0293069B03939DF81430FD
:102468008DF8115003F00302012A1DD1BDF8142084
:10247800059DC3F3C203C2F383168DF81030B20072
:1024880008230EA9204601F027FDC5F3952508ABC2
:102498000093324602AB0EA9284600F0DFFB204627
:1024A80001F0F7FC15B0F0BD022AF8D1BDF81650BE
:1024B800C3F3C203C5F389158DF810300827082D1A
:1024C8002E4628BF08263B4632460EA9204601F074
:1024D80003FDAD1B08AB02AA31460EA8374400F035
:1024E80021FC002DEBD1DAE708B5FFF79AFF074882
:1024F800042100F01FFB002803DA0549412000F001
:10250800A1FD044B01225A7108BD00BFD8A40700E1
:1025180044A50700FC2A0020037813F0040216D013
:1025280003F00303012B03D0022B09D001207047CD
:102538000A6800880232C0F3831002440A60F5E793
:102548000B684288023303EB92130B60EEE71046E8
:10255800704700002DE9F04FDFF834A187B00F462F
:1025680000230446861C0DF1070015468DF8073038
:1025780000F0FCFCDAF804203A60DAF80830424F40
:1025880003F580639B1AA7F10409A7F10808B34271
:102598001BD30020002D72D004F00F039B0143F0E1
:1025A800050363F30F00DAF80430C3F309020332BA
:1025B80033444AF822009DF80700CAF8043000F0B6
:1025C80005FD012007B0BDE8F08F0121384600F075
:1025D8002AFE484600F042FE404600F03FFEDAF888
:1025E80008000290C0F3090003300AEB800002A93A
:1025F800FFF792FF029B8346C8B9C3F309020AEBAF
:102608008202D16803919A1C0133C3F309030AEBD0
:1026180083030292D86801F00303012B27D0022B11
:1026280008D01A494FF4C27000F00CFD0CE0C3F357
:102638000900D9E7BDF80E30C3F3891303334FEA15
:10264800104B02EB93030293404600F00AFE10B1D0
:10265800029BCAF808305946384600F0E4FDDAF81B
:102668000830DAF8042003F580639B1A8FE7BDF879
:102678000C30C3F383134FEA104B1344E3E7A4056C
:1026880044F006008FE700BF803C0020B7A5070094
:10269800642C0020064B074810B500221A7001F080
:1026A800ADFB044610B9044801F02AFC204610BDD1
:1026B800642C0020B0A4070028A6070030B50A4CF7
:1026C80071B10A4A0A49121BD20800239A4201D161
:1026D800002030BD31F82350854202D00133F5E7A0
:1026E800034654F83300F4E740A40700B0A40700F9
:1026F800E82A0020094B013903EBC000032909D857
:10270800DFE801F00A0204060420704700797047E8
:1027180040797047002070470220704740A40700A6
:10272800034BD3E90130C31A58425841704700BFE0
:10273800642C00202DE9F04387B0FFF7F1FF06462F
:10274800002840F0F080794C04F58055A861BFF36B
:102758004F8FA3680293C3F30903033304EB830089
:1027680002A9FFF7D9FE029B10B1AA69002A5DD021
:10277800C3F30902991C013304EB8202C3F3090372
:1027880004EB8303D268DB68049302F00303022B93
:102798000392029155D1BDF80E306548C3F38918EC
:1027A8004746502F28BF502707F1080167F38F13BA
:1027B800C1F30901ADF80E3001F038FB06460028D8
:1027C80000F09D8001F061FB0023082203A9304638
:1027D80001F06EFB0299CB43C3F309030133C1F344
:1027E80009010331B7EB830F4FEA830204EB810140
:1027F80024D95FFA82F90823A7EB0907304601F0CC
:1028080057FBFFB209F108034A4903F0FC033A46B3
:10281800304601F04DFB029B08F1030803EB9803D7
:102828000293AB69002B43D12F6954E062689A4246
:1028380091D8A260304607B0BDE8F08308233A4635
:10284800E6E7012B5BD1BDF80C303948C3F383119F
:10285800062928BF062161F38913023101F00F010F
:102868008900ADF80C3001F0E1FA0646002846D0A0
:1028780001F00BFB0023082203A9304601F018FBE6
:102888000027BDF80C20C2F38312BB00974203F166
:102898000803C6D202994A1CC1F309010331029206
:1028A80004EB81010422304601F002FB0137E8E71E
:1028B800304601F0EEFAFFF733FF80F00100C6B2B0
:1028C800B8E7FB685B7923B13B6831461B6838463B
:1028D8009847FB681F68002FF3D1304601F0D9FAFA
:1028E8000DF107008DF8077000F040FBAB690BB9DC
:1028F800029BA3609DF8070000F068FBDBE72C69EA
:1029080054B90D4B0D480E49C01AC008000440F0D8
:10291800020000F073F8CEE7236820469B689847CA
:10292800E3681C68ECE7002684E700BF642C0020FD
:10293800B0A40700702C002040A4070040A40700A2
:1029480012A607002DE9F34704460F46914601A950
:10295800012218461E46FFF7FDFDDFF89C8078B37C
:10296800019D0023A81CB34203EB000132D11E488D
:10297800002100F01DFC80F3100A1C4B1C4A4FEA92
:1029880014499B1AB9EBD30F04D31A4940F2A91082
:1029980000F058FB6B1CC3F30903E40008EB830346
:1029A80004F0380449EA0A40C5F3090544F0010473
:1029B800D860033544EA861343EA872348F825306C
:1029C80098F800301BB1FFF7B5FE0028FBD102B024
:1029D800BDE8F087C1F3090108EB810159F823200C
:1029E800CA600133BFE700BF803C0020B0A40700E5
:1029F80040A40700B7A50700642C002000231A464E
:102A0800FFF7A0BF07B50123019201AAFFF79AFFBC
:102A180003B05DF804FB07B5CDE9002302236A463D
:102A2800FFF790FF03B05DF804FB1FB5CDE9012364
:102A3800069B039301AA0323FFF784FF05B05DF803
:102A480004FB1FB5CDE90023069B0293079B039364
:102A58006A460423FFF776FF05B05DF804FB7FB5EF
:102A6800CDE90123089B0393099B04930A9B0593D3
:102A780001AA0523FFF766FF07B05DF804FB000015
:102A88002DE9F7430446D01C8846164601A90022C2
:102A98008008FFF75FFD254D98B3019FB81C019092
:102AA800C0F30900C0F58063B6EB830F00F10300A3
:102AB8004FEA830905EB80002CD83246414607F0DF
:102AC80003FC1B48002100F073FB80F310007B1C03
:102AD800C3F30903C7F30907220C05EB8303033784
:102AE80042EA0040E400D86004F0380455F8273082
:102AF80044F0020444EA865203F47C131A4345F86E
:102B080027202B781BB1FFF715FE0028FBD103B057
:102B1800BDE8F0834A46414607F0D6FBA6EB09021A
:102B280008EB090105F10C00C9E700BF642C00207F
:102B3800803C002030B50E4C226903460020114627
:102B480029B9D968087142B923610A6030BDC968DA
:102B58000D79854206D00968F2E7D26814680C60DE
:102B68001360F3E701300A28E9D14FF0FF30EDE7B1
:102B7800643C002038B5084B03F5805201251469E0
:102B88001D7004B938BDE3685D71236820465B6831
:102B98009847E3681C68F4E7642C002030B5C388C4
:102BA80085B004460D4633B1144A00921449154ABB
:102BB800284600F001FC217A05291DD0637A4BB123
:102BC800A088FFF797FD104B104953F8202028469E
:102BD80000F0F2FB227A0E4BA08853F822200392D1
:102BE8000021FFF76BFD039A0A490346284605B002
:102BF800BDE8304000F0E0BB05B030BD54A607008A
:102C08003CA6070034A60700C4A6070041D3070066
:102C1800E8A6070059A6070007B503460846197A2B
:102C2800052911D05B7A2BB1094A0A49019000F0B5
:102C3800C3FB01980849019000F0BEFB019803B05E
:102C48005DF804EB00F0A6BB002AF8D0F2E700BF5D
:102C580054A6070041D3070051A607002DE9F04309
:102C680085B01F460C9D002395F80C902B730646E3
:102C78000C46904629463846FFF790FFB8F1060FF4
:102C880009D8DFE808F00412181F2833400031463D
:102C9800284600F091FB002229463846FFF7BCFF82
:102CA80085F80C9005B0BDE8F083226831462846C7
:102CB80000F082FBEFE7D4E900233146284600F014
:102CC8007BFBE8E7A36800933146D4E90023284654
:102CD80000F072FBDFE7E3680193A36800933146D5
:102CE800D4E90023284600F067FBD4E72369029360
:102CF800E3680193A36800933146D4E9002328468A
:102D080000F05AFBC7E76369039323690293E368FA
:102D18000193A36800933146D4E90023284600F0C4
:102D28004BFBB8E708292DE9F74F80460E461746B2
:102D38001C463DD800251B7B257321461046019370
:102D4800FFF72CFFDFF88CA0DFF88CB0AE4232D949
:102D580018F805205946204600F02EFB0135082DAD
:102D6800F4D11B49DFF874A0DFF874B0204600F0F6
:102D780023FB4FF000094E4524D918F809507E2D41
:102D88001ED8284607F064FA002814BF2A462E22C7
:102D98005946204600F010FB09F10109B9F1080F66
:102DA800E9D1012221463846FFF736FF019B2373FC
:102DB80003B0BDE8F08F5146204600F0FDFACDE79C
:102DC8002E22E5E75146204600F0F6FAE4E700BF78
:102DD8006DA6070069A6070063A607006BA6070093
:102DE8006FA607004B1C30B5DB00044612F0030049
:102DF8009BB20DD1074D2A601A44074B1A60074B46
:102E08001870074B1870074B1C80074B198030BD92
:102E18000720FCE7243D0020203D00201C3D002029
:102E28002C3D0020283D00202A3D00202DE9F743B5
:102E3800DFF8BC80B8F800308B4206460D461746CE
:102E480047D300240DF107008DF8074000F08EF8F5
:102E5800224B234A23481B78008892F800C08445F7
:102E68005FFA8CF138BF4C1CDBB238BFE4B2A34226
:102E780028D014781178CBB2884286BF0133DBB2F0
:102E8800002313709DF8070000F0A0F84FF6FF73B9
:102E98009C4220D0144B1B6843F8347003EBC409E0
:102EA8009EB195B1114BB8F800001B682A4631460F
:102EB80004FB003007F008FAA9F80450002003B01A
:102EC800BDE8F0834FF6FF74DCE70020A9F80400A2
:102ED800F5E70920F3E70420F1E700BF2C3D0020C7
:102EE8001C3D00202A3D0020243D0020203D0020DC
:102EF800283D002070B5104C104D22782B789A424E
:102F080000D170BD0E480F4A2378126806880E4813
:102F180002EBC301006852F83320898803FB0600DE
:102F280090470A4922780988D3B2914286BF013373
:102F3800DBB200232370E0E72C3D00201C3D00207D
:102F4800283D0020243D0020203D00202A3D00206F
:102F5800EFF30583C3F308032BB9EFF31480C043E1
:102F680000F00100704701207047000070B504466A
:102F7800FFF7EEFF012803D01049432000F062F864
:102F8800EFF3108672B60E4A9068012398B99360E1
:102F98000C4B0D4DD3F8801029401160C3F88050B8
:102FA800D3F8841051604FF0FF32C3F884202070AA
:102FB80006B962B670BD2370FAE700BFFCA6070029
:102FC800303D002000E100E0FC06FFBD10B50446DE
:102FD800FFF7BEFF012803D00949512000F032F85D
:102FE800084B9A685AB154B9EFF3108172B6064A81
:102FF80018681060586850609C6001B962B610BDCE
:10300800FCA60700303D002000E100E030B53AB1F1
:103018001368DB430A4D0144814204D1D84330BDD3
:103028004FF0FF33F6E710F8012B5340082213F056
:10303800010418BF2C46013A84EA5303F7D1EBE7A1
:103048002083B8ED07B5CDE900016A46002144F2B6
:10305800020002F0F3F803B05DF804FB10B561B1AB
:10306800B2FBF3F403FB1424A4B244B9C0E900147E
:1030780084608281C381204610BD0E20FCE70920B0
:10308800FAE782B050E8022FC188B2EB324F4FF016
:10309800000317BF92B241EA014142EA014104E04C
:1030A8004268B2EB324F08BF012340E80212002AFF
:1030B800E8D18DF807309DF80730002B0CBF1120A0
:1030C800002002B0704737B550E8013F9DB2C4896F
:1030D80025448489A54228BF2D1B0489A54202BF27
:1030E800BFF32F8F002207E0C5EA030540E801542B
:1030F800002CE9D14FF001028DF803200193019AC9
:103108000A609DF8031001F0FF0321B1006810FA6E
:1031180082F003B030BD1846FBE70A884B889A4214
:1031280009D150E8012FC2EA024240E80123002BEE
:10313800F7D1012070470020704737B550E8023FAB
:103148001FFAA3F5C488A54202BFBFF32F8F002240
:103158000DE0C48925448489A54228BF2D1BC3EAF4
:10316800054540E80254002CE8D14FF001028DF8E3
:1031780003200193019A0A609DF8031001F0FF03F0
:1031880021B1006800EB124003B030BD1846FBE7E0
:103198000A884B889A4209D150E8022FC2EA224293
:1031A80040E80223002BF7D1012070470020704728
:1031B80010B5034653E8000F0A4643E8002494F08C
:1031C800000FF7D110BD10B5034653E8000F40EAD1
:1031D800010243E8002494F0000FF6D110BD10B5A9
:1031E800034653E8002F42EA010043E8000494F044
:1031F800000FF6D110BD10B5034653E8000F00EAE2
:10320800010243E8002494F0000FF6D110BD10B578
:10321800034653E8002F02EA010043E8000494F053
:10322800000FF6D110BD10B5034653E8002F02EB8E
:10323800010043E8000494F0000FF6D110BD10B56A
:10324800034653E8002FA2EB010043E8000494F082
:10325800000FF6D110BD0121FFF7B5BF0121FFF71F
:10326800BEBF0021FFF7C7BF0021FFF7D0BF000096
:1032780010B50446002834D003681BB91A49FF204A
:10328800FFF7E0FE636823B917494FF48070FFF732
:10329800D9FEA36823B9144940F20110FFF7D2FE02
:1032A800E36823B910494FF48170FFF7CBFE238AF6
:1032B80023B90D4940F20310FFF7C4FED4E90123F6
:1032C80021689B1ADBB20A60013BDBB2FF2B226844
:1032D80002D10020107110BD1168481C10600B70DD
:1032E800F2E70E20F7E700BF5EA7070037B50446F0
:1032F80020B913494FF49270FFF7A4FE00250DF191
:1033080007008DF80750FFF731FE226863681168DF
:1033180099420ED9481E106011F8013CE568218ACF
:1033280001FB0355A36811791B1ADBB2994238BF18
:1033380013719DF80700FFF749FE284603B030BD1A
:103348005EA7070037B50C46054620B9104940F27C
:103358004710FFF777FE24B90D494FF4A470FFF723
:1033680071FE00230DF107008DF80730FFF7FEFD11
:103378002A681368591C1160E968641A298AB4FB21
:10338800F1F41C709DF80700FFF720FE03B030BD74
:103398005EA7070010B5044618B906493120FFF7A3
:1033A80051FEA2682AB16369216820699847002301
:1033B800A36010BDB2A707000EB433B5059D04463F
:1033C80018B911494220FFF73DFE63691BB90E4940
:1033D8004320FFF737FE23681BB90B494420FFF74A
:1033E80031FE63681BB908494520FFF72BFE35B14C
:1033F80006AB01AA29462046019300F079F802B0ED
:10340800BDE8304003B07047B2A707000A2938B5B5
:1034180004460D4602D10D21FFF7F8FFA368226884
:10342800591CA160D554D4E901329A4204D32046EC
:10343800BDE83840FFF7AEBF38BD00002DE9F84FB2
:103448009846DDE90A43154682460F460A464FF07C
:103458000109AA420FD2C14538BFC14613F0010B7A
:1034680001D16CB900240126B8F1010F1BD908F16C
:10347800FF386E43F8E709F10109B2FBF5F2E8E716
:103488009B070ED5B8F1000F0CBF30262026A145AA
:10349800E9D2013C31465046FFF7B8FF002CF6D17F
:1034A800E0E72026F3E7B7FBF6F39D42E1D9DFF822
:1034B8003C80B7FBF6F3504618F8031006FB137769
:1034C800FFF7A4FF3346AB42B6FBF5F6F1D2BBF1EA
:1034D800000F02D00CB1A14501D3BDE8F88F20211F
:1034E8005046013CFFF792FFF4E700BF4DA80700E4
:1034F8002DE9F74F88461746054620B9AF4940F2EF
:103508005220FFF79FFD6B6923B9AC494FF4157042
:10351800FFF798FD2B6823B9A84940F25520FFF71B
:1035280091FD6B6823B9A54940F25620FFF78AFD43
:10353800B8F1000F00F03E8118F8011B49B92B7B48
:10354800002B00F03781284603B0BDE8F04FFFF7A5
:1035580021BF252940F0B780002698F800302D2B90
:10356800424608F1010823D0302B24D02B2B25D03C
:1035780000242A2B02F1010123D13B681A1D1B6884
:103588003A601C440A4613782E2B26D101324FF09C
:10359800000A104610F8011BA1F1300CBCF1090F0C
:1035A8001DD80A2303FB0A13A3F1300A0246F0E7E9
:1035B80046F00106D1E746F00206CEE746F00406DB
:1035C800CBE711F8013CA3F130000928DBD80A2227
:1035D80002FB0434303C0A46CBE74FF0000A12F8ED
:1035E800011B01F0FB0068289046F8D0782909D81B
:1035F8006F290CD8632962D022D8252963D058298D
:1036080000F0888098F80030002B95D197E7703942
:103618000829F7D801A353F821F000BF973707000E
:103628000D3607000D3607002D3707000D36070049
:103638000B3707000D3607000D3607001D3707004A
:10364800642901D06929DDD13A68D2F80090111DAA
:1036580089EAE9723960A2EBE9724FF0010B092A95
:1036680035DCD34538BFD3462CB1B9F1000F01DBA7
:10367800720700D5013CB30702D5BAF1000F03D099
:10368800F00701D44CBB0024B9F1000F2DDAC9F1C1
:1036980000092D212846FFF7B9FE06F00302022A89
:1036A80004D1BAF1000F01D11CBB0024CDE90046BA
:1036B80053460A2249462846FFF7C0FEA2E73B6860
:1036C8001A1D19783A602846FFF7A0FE9AE70A23E0
:1036D8000BF1010BB2FBF3F2C1E7A345D4D22021D1
:1036E8002846013CFFF792FECCE77107D5D52B2180
:1036F800D0E7A345DAD230212846013CFFF786FE01
:10370800D2E73968CDE900460A1D3A6053460A22D5
:103718000968D0E739680A1D3A60CDE90046534682
:103728001022F5E73B681A1D3A6016F00106D3F837
:10373800009024D1B9F1000F03D0484606F042FEAC
:103748000646B4421DD809F1FF3919F8011F0029AE
:103758003FF458AF2846FFF759FEF6E728460136EA
:10376800FFF754FE19F806100029F7D1A642BFF456
:1037780049AF20212846013CFFF748FEF6E700261E
:10378800F0E720212846013CFFF740FED9E73B68D7
:103798001A1D3A60302128461C68FFF737FE782149
:1037A8002846FFF733FE00220823CDE900322146E0
:1037B800102280E703B0BDE8F08F00BFFCA7070028
:1037C80070B50D461646044618B908495520FFF746
:1037D80039FC1DB905495620FFF734FC2B682560D4
:1037E80031462046BDE87040184700BF5DA8070075
:1037F8002DE9F041DDF818800E4617461D460446AF
:1038080018B922498820FFF71DFC1FB91F498920D4
:10381800FFF718FC23681BB91C498A20FFF712FC24
:1038280045BB1A498B20FFF70DFCB20703D0174997
:103838009120FFF707FCBB0703D014499220FFF73C
:1038480001FCE3689E4204D322696B1E3344934211
:1038580003D90E499320FFF7F5FB2368CDF81880AC
:10386800D3F80CE03A462B4631462046F446BDE8EC
:10387800F041604763685A68B5FBF2F302FB1353E3
:10388800002BD2D001498E20CDE700BF5DA80700EC
:103898002DE9F0410D4616461F46044618B9194948
:1038A8009E20FFF7CFFB23681BB916499F20FFF71F
:1038B800C9FB1EB91349A020FFF7C4FB63681B6846
:1038C800013B2B4203D00F49A320FFF7BBFBE36862
:1038D8009D4207D363681A686B1E02FB0633226990
:1038E800934203D90749A520FFF7ACFB2368D3F817
:1038F80010E032463B4629462046F446BDE8F041F2
:10390800604700BF5DA8070070B550B90E4D0F4C59
:103918000026641B1423B4FBF3F4B44208D100203E
:1039280010E00368002BF1D0BDE87040DB69184750
:103938002B6813B901361435EFE7DB692846984739
:103948000028F7D070BD00BFE82A0020FC2A00201C
:10395800014B436000207047C4A807000846704721
:1039680000207047024B1868003818BF01207047C4
:103978003C3D002008B50248FFF776FC002008BD52
:103988003C3D002008B510461A4606F09DFC002074
:1039980008BD00002DE9F041804686B011480F4669
:1039A80016461D46FFF757FC0446C8B9AA08314613
:1039B800384600F0B3FC0B48FFF756FCD8F808303F
:1039C80053B101228DF800200C9A0592CDE90147E8
:1039D800CDE9036568469847204606B0BDE8F08102
:1039E8001124F9E73C3D00202DE9F043814687B0DA
:1039F80014480E4615469846FFF72DFC0446F0B9C4
:103A08000746BD4215D10F48FFF72EFCD9F80830FC
:103A18005BB102228DF800200022CDE90126CDE914
:103A28000325CDF8148068469847204607B0BDE8BE
:103A3800F08306EB073000F043FC0137E1E711247F
:103A4800F3E700BF3C3D002029DF704728DF7047BF
:103A580070B503689E6886B004460D466EB11422A0
:103A68000021684606F059FCA3680593237901955F
:103A78002BB1012B0DD06846B04706B070BD0123AD
:103A88008DF8003023690293E36803936369049314
:103A9800F1E702238DF80030E3681B030293F5E792
:103AA8000846704700207047024B187A003818BF44
:103AB800012070472C3F0020034B187A0122B0FAEE
:103AC80080F05A74400970472C3F002008B5104612
:103AD8001A4606F0F9FB002008BD000008B51422BC
:103AE8000021044806F019FC0348FFF7CAFA002031
:103AF80008BD00BF2C3F00201C3F002010B5094C1A
:103B0800094B43602046FFF7A6FB48B906F0BCF90D
:103B1800064920741C2306484FF4EE72FFF79EFAFC
:103B2800002010BD2C3F0020F0A80700403D0020D9
:103B38001C3F002038B5224D224C2B7A3BB9224934
:103B48002248FFF7FAFA206008B9686038BD0223F6
:103B580024682B72237973B1012B22D020460321CC
:103B6800FFF776FF00232B726B6017491748BDE8F3
:103B78003840FFF70DBBD4E90523D21A142AD4E93B
:103B8800031028BF14229208012A38BF01221944C1
:103B98001844FFF759FF50B11128DFD101232B72C8
:103BA800D4E7D4E903031844FFF750FFF3E72B7C6D
:103BB800002BCBD1BDE83840022000F009B800BF87
:103BC8002C3F0020443F0020403F00201C3F0020A5
:103BD80038B5224C237A002B3FD0022B09D1032879
:103BE8002ED01F4B00221B68E2601A793AB1012AD5
:103BF80020D0637C6BBBBDE83840FFF79BBFD3E99F
:103C080005128D1A142D94BF521914329A619142DB
:103C1800EFD102284FF0000308BF19462372104B5A
:103C280018BF0D211868FFF713FF0E490E48FFF75C
:103C3800AFFADEE71A6901321A615B699A42E7E76F
:103C4800E3680133082B01D8E360D2E70023E3607F
:103C5800DFE7BDE8384006F007B938BD2C3F002043
:103C6800443F0020403F00201C3F0020831E012BC2
:103C780001D8FFF7ADBF704700F0FD03012B08D155
:103C8800044B00225A74421E504250411874FFF7E8
:103C980051BF70472C3F002010B5064C201DFFF780
:103CA800DAFA28B9637C1BB9BDE81040FFF742BFB8
:103CB80010BD00BF2C3F00202DE9F34180460D4682
:103CC800104801A916461F46FFF7FDF90446B0B192
:103CD80018220021043006F020FB2D0B012323714C
:103CE80001A90848C4F80080A760E5606661FFF78D
:103CF80014FAFFF7D1FF002002B0BDE8F0810420DC
:103D0800FAE700BF1C3F00202DE9F34180460F462B
:103D18000F4801A916461D46FFF7D5F90446A8B174
:103D280018220021043006F0F8FA089BA36001A9C4
:103D3800C4E903670648C4F800806561FFF7EDF938
:103D4800FFF7AAFF002002B0BDE8F0810420FAE7DF
:103D58001C3F00202DE9F74F99469DF8303000931D
:103D680088469346064618B92349B620FFF76AF9EC
:103D7800F28871794A43043A4A4505D81E490192A6
:103D8800C420FFF75FF9019ADBF80070B6F806A0C7
:103D980007EB0901914209F1040488BFA2EB090766
:103DA800B4FBFAF5CBF800700AFB154445B9AAEB49
:103DB800040BBB4528BFBB462FB903B0BDE8F08F45
:103DC8003668013DF2E7009B043408EB05003444F3
:103DD8005A466BB12146A7EB0B0706F075FABA45B0
:103DE8005D443668D3464FF0000428BFBB46E3E77E
:103DF80001462046EFE700BF1CA90700FFF738BAC5
:103E0800F8B546790146721E0546002393422D688F
:103E180003D30024A64202D8F8BD0133F6E70F68A1
:103E28002846FFF78FFA01343946F3E72DE9F843BE
:103E3800068ACD1C0746FFF759FA043E3544044666
:103E4800B5FBF6F5F0B14FF48073EDB28380C68010
:103E5800013D076081464FF00008A84512D2384658
:103E6800FFF744FA064648B163790133637108F1F4
:103E78000108C9F8000007608146EEE72046FFF711
:103E8800BFFF34462046BDE8F88301210430FFF720
:103E9800CAB910B5012104460430FFF7D0F9C0B201
:103EA80020B92046BDE81040FFF7AABF10BD0000AA
:103EB8001FB5144603920022009203AAFFF74AFF97
:103EC800039BA34203D00349F620FFF7BBF804B0D5
:103ED80010BD00BF1CA907001FB51446039201229C
:103EE800009203AAFFF736FF039BA34204D00349BD
:103EF8004FF48070FFF7A6F804B010BD1CA90700A6
:103F0800836800225A60C3E904229A60DA601A6062
:103F18007047000038B50D46044618B909495020C5
:103F2800FFF790F81DB907495120FFF78BF82B6868
:103F38006A686360934208BF0023256008BF636016
:103F480038BD00BF70A9070010B5044618B90B4961
:103F58006320FFF777F823681BB908496420FFF747
:103F680071F8636843B12268916852680B449342C0
:103F7800636004BF0023636010BD00BF70A9070021
:103F880010B50D49A1F59472914201D800200FE0B7
:103F98008C1AE30F03EBE4035B1002EBC30452F843
:103FA8003330834205D802D204F10802ECE7606896
:103FB80010BD2146E8E700BFD4AE070008B5FFF7FB
:103FC800DFFF024B002808BF184608BD97AD070061
:103FD8002DE9F04FC9B008AA01F1400514464B7805
:103FE8000E781B0443EA0663CE7833438E78043197
:103FF80043EA06238D4244F8043BF0D11024916B28
:1040080016464FEAF14383EA714383EA9123716AC2
:10401800366852F8045F31440B444FEAB54181EAEF
:10402800F51181EAD50101340B44402CD363E6D164
:10403800D0E914E30093836D0193C36D0293036E7B
:104048000393436E0493836E0593C36E0693DDE971
:10405800057BDDE9031CDDE901592B4B009E079325
:1040680074464FF00008079B53F8042B07934FEA58
:10407800F12383EAB11383EA716A08AB53F8283055
:104088001A440AEB020327EA010A01EA0C028AEA47
:1040980002021A444FEA743A86EA05035A44234056
:1040A8008AEAB40A06EA050B83EA0B0B8AEAB45AD1
:1040B80008F10108DA44B8F1400F02EB0903BB46E6
:1040C8005244A94619D172440265009A22444265B5
:1040D800019A32448265029A2A44C265039A1A44B4
:1040E800049B02660B444366059B63448366069BF8
:1040F8003B44C36649B0BDE8F08F674635468C46F9
:10410800264619461446AEE7D4AE070030B5E0B1EE
:104118000F4A104900240025C0E91245C0E91412CD
:104128000D4C0E4A0E4DC0E916420E4AC0E918520F
:104138000D4A826602F17452A2F523020023A2F608
:1041480092420364C266184630BD0E20FCE700BFE9
:1041580085AE67BB67E6096A72F36E3C3AF54FA510
:104168007F520E518C68059BABD9831F70B5F0B197
:10417800DAB900201CE00C468D180026AC42F8D0B5
:10418800036C14F8012BC2540133402B0364F5D19E
:104198000146FFF71DFFD0E9123213F5007342F113
:1041A8000002C0E912320664E8E70029E3D10E20D4
:1041B80070BD70B50D4616460446002876D0002915
:1041C80074D0036C8022591C372BE25408443FD822
:1041D800C3F13702002106F0A0F8D4E91223216CBC
:1041E8000820E1FB0023C4E9122312BAE26323FA90
:1041F80000F284F83B3084F83A201A0C1B0E214652
:1042080084F8392084F838302046FFF7E1FE691E2B
:104218006EB30023E26EDA4001F8012FA26EDA4095
:104228000A71626EDA400A72226EDA400A73E26D2F
:10423800DA400A74A26DDA400A75626DDA400A76CD
:10424800226DDA400833202B0A77E3D1002070BDB5
:104258004029C3F13F024FF0000188BF002206F059
:104268005CF821462046FFF7B3FE3822B2E7182350
:10427800226DDA4001F8012F626DDA400A71A26DF1
:10428800DA400A72E26DDA400A73226EDA400A7482
:10429800626EDA400A75A26EDA400A76E26EDA4099
:1042A800083B13F1080F0A77E2D1CFE70E20CEE7DB
:1042B800024AD2F80034002BFBD0704700E00140DE
:1042C8000A4908B50223C1F80435BFF36F8FBFF35D
:1042D8004F8FC1F80805FFF7EBFF0023C1F804353D
:1042E800BFF36F8FBFF34F8F08BD00BF00E00140E1
:1042F80010B5094C0123C4F80435BFF36F8FBFF321
:104308004F8F0160FFF7D4FF0023C4F80435BFF3D3
:104318006F8FBFF34F8F10BD00E0014070B50E4E98
:1043280001231546C6F80435BFF36F8FBFF34F8FCF
:104338000024AC4207D10023C6F80435BFF36F8FC1
:10434800BFF34F8F70BD51F8243040F82430FFF789
:10435800AFFF0134EDE700BF00E0014043689B6810
:10436800184708B5436808305A7900F007FF00205D
:1043780008BD2DE9F0410C469CB008461F46039243
:10438800FFF7ECFFD4F80480039998F80550BD4274
:1043980028BF3D4606462A4604A800F0D3FE98F8F2
:1043A800052022990CA800F0E9FE00960CAB2A46DD
:1043B80004A904F1080001F01DFE002848F242504B
:1043C80018BF00201CB0BDE8F0810023C0E902320C
:1043D8008B881A44B1F9063002611A44C0E9001109
:1043E80042610888003818BF012070474268118868
:1043F80038B50346002937D0148A02F1100141600C
:104408002CB9C2680168FFF7E0FF204638BD9078F4
:10441800118900F03005302D14D1947C04F030045B
:10442800302C1BD190881969091A19610021908ACA
:10443800B2F91620084419690144196111445961F7
:104448000120E3E700F0F004202C07D15089414314
:10445800002DECD1986801309860E8E700F0C000C2
:10446800802808BF0421F3E70846CFE770B54668FF
:1044780004460D4663681A88AA4204D19B7803F063
:104488000F03082B07D12046FFF7B0FF6368B3423C
:10449800F0D1002070BD0120FCE743681A44426057
:1044A80011B101399A4201D10120704713F8010B6B
:1044B80001F8010FF6E770B54568AA7802F00F0613
:1044C800082E86B003461FD103691C6800260CB964
:1044D80006B070BD236862689D68267329466846E1
:1044E800FFF773FF6368049304F10C030593AB783B
:1044F80003F0C003802B08BF231D684608BF049340
:10450800FFF7D9FFA468E2E712F0C00122D102F058
:10451800300010280CD15A691170072EEC68186900
:104528000BD10146204606B0BDE8704000F01AB82D
:104538009006F2D55B691980CAE72A89214624B119
:1045480006B0BDE8704005F0BFBE06B0BDE87040DB
:1045580005F0E3BE8029BBD1006900219206016005
:10456800B6D5E7E77FB50A4601466846FFF72DFF4F
:1045780030B16846FFF79FFF6846FFF737FFF7E758
:1045880007B05DF804FB836810B504460BB900203A
:1045980010BD0368012298470028F8D0A368013BA2
:1045A800A360F5E72DE9F3410F460DF107018046B9
:1045B800FFF7E9FF054620B90025284602B0BDE807
:1045C800F0819DF907309DF80740002B13DA04F0BD
:1045D8007F0407260DF107014046FFF7D4FF0028A6
:1045E800EAD09DF8072002F07F03B3401C4313066E
:1045F80006F1070601D43C60DFE7232EEAD1DBE7AA
:1046080030B5044685B01546A9B90268114B9A42DF
:1046180011D0102D06D82A4669462046FFF7F0FF2C
:1046280005B030BD102269462046FFF7E9FF002893
:10463800F6D0103DEDE7A368AB4201D20020EFE7CA
:1046480023682A46204698470028F7D0A268521BBC
:10465800A260E5E7A3440700F7B50E4601A907469F
:104668001546FFF79FFFA0B1019A511C4FF00004B7
:1046780004D2B37803F0C003802B01D1204608E0B0
:1046880033898B42FAD329463846FFF7B9FF019B95
:10469800EC5403B0F0BD73B50D4601A906461446A7
:1046A800FFF780FF98B1019AB2F5803F11D2AB783D
:1046B80003F0C003802B02F102010AD02B898B4240
:1046C80007D32146304621F8022BFFF799FF02B0A5
:1046D80070BD0020FBE7000010B5034C826000228B
:1046E800C0E90041C26010BDA34407002DE9F341B1
:1046F800002580460E462F462C460DF10701404600
:10470800FFF741FFC0B19DF807C0A4F120030CF0EA
:104718007F02C4F1200102FA03F322FA01F10B43EC
:10472800A2401CF0800F45EA020547EA030704F19E
:10473800070404D1C6E9005702B0BDE8F081462C51
:10474800DBD10020F8E737B50D4669461446FFF778
:10475800CDFF70B12B89082B0DD1DDE90032C4E9FA
:104768000032DDE90001914208BF98420CBF0120E8
:10477800002003B030BD042B03D1009B236000222E
:10478800EFE7022B03D1009B23809BB2F7E7012BB5
:1047980004D1009B237003F0FF03F0E70020E8E753
:1047A80037B50D4669461446FFF7A0FF30B12B898F
:1047B800082BDDE9001203D1C4E9001203B030BDB3
:1047C800042B4FEAE17009D121600B460246824270
:1047D80008BF8B420CBF01200020EFE7022B03D15A
:1047E8000BB22380DA17F2E7012B02D14BB2237008
:1047F800F8E70020E2E7F7B51F4600233B700D46B7
:104808000B70136001A904461646FFF7CBFE30B9BA
:10481800A36813B901233B70002003B0F0BD019CCD
:10482800002CF7D0E30804F0070433602C70F4E799
:1048380013B50446052925D8DFE801F0030F17242E
:104848002422012201A92046FFF7DAFE18B19DF9BA
:104858000430002BF5DB02B010BD082200212046F1
:1048680002B0BDE81040FFF7CBBE01A9FFF79AFEE2
:104878000028F0D0019A00212046FFF7C1FEEAE7A0
:104888000422EBE70020E6E773B50D4601A90446CC
:10489800FFF788FE064618B90026304602B070BDFC
:1048A80094E80F0085E80F0001998A42F4D3A960C3
:1048B800A3685B1AA360F0E72DE9F0435668B37864
:1048C80013F0C00489B007468C46154603D0402C27
:1048D80069D000240CE003F00F02604903F03003B4
:1048E800202B51F8228025D006D8E3B1102B17D001
:1048F800204609B0BDE8F083302BF9D16B693188C7
:104908001980072A09D121463289286905F005FD51
:104918006B682969D868FFF725FE2A69696840E04D
:104928006B6901221A702A693146434609B0BDE80D
:10493800F0431847BCF1020FD5F8149024D1042A8B
:1049480022D804A9FFF7A0FF04460028C1D0069B7F
:104958002BB16968B9F800304A899A4205D8059B95
:104968007B60069B002BC3D0B3E708892A6903FB49
:10497800002204A8C04728B1B9F800300133A9F8CB
:104988000030E4E70446EAE7B9F8003072899A4251
:104998009FD931892A69581C03FB0122A9F8000014
:1049A80031463846C1E7D2F81080464656F8043BEF
:1049B80023B909B0BDE8F043FFF73ABF022914D183
:1049C80004A9FFF761FF002883D0D8F80030696890
:1049D800324604A89847044600283FF47AAF069B5D
:1049E800002BF2D1059B7B6082E7012926D005299F
:1049F8002CD000297FF46DAF0C460DF10409013469
:104A08000B2C3FF466AF012249463846FFF7F8FD04
:104A180000283FF45EAF19F9013B002BEFDB104B88
:104A2800049301ABCDE90534002307936968D8F8EE
:104A38000030324604A89847044659E7082201A9DD
:104A4800FFF7DEFD08240028E9D142E704220DEB38
:104A58000201FFF7D5FD0424F5E700BFE0AF07002A
:104A6800A34407002DE9F04F91B00446002604A89E
:104A7800CDE90266FFF7A9FCA3683BBBDDE9053475
:104A880004A89D78FFF7B2FC0028F7D115F0300F85
:104A980003D1059B1B8803B10134002C00F0A980C9
:104AA800630902A90022934240F09C8010AA02EBFD
:104AB800830304F01F0453F8383CC4F120044FF07A
:104AC800FF30E040C31A584258410DE00DF103038E
:104AD80001AA0DF102012046FFF78DFE38B99DF8B5
:104AE8000330002BCAD1002011B0BDE8F08F019926
:104AF80004A8FFF7BBFC002850D1019BB3427DD32B
:104B0800059D059A937803F00F03082B7FD004A81E
:104B1800FFF76CFC059B9D42F3D14FF0FF36019FD8
:104B2800B7426BD3089B9DF802A0D4F808801D6893
:104B38004FF00109A368002D5DD098459CD12B68E2
:104B4800D3F800B0BBF1000F08D053463A462946C7
:104B58002046D8470028C6D0AD68EBE7D3F808B0A0
:104B6800BBF800309F42F7D16A6859460AA8FFF798
:104B78002CFC6B680E9305F10C030F939BF8023025
:104B880003F0C003802B04BF2B1D0E930AAA85F8DF
:104B98000C9051462046FFF78FFEDBE7059B9B787C
:104BA80013F0300F0FD1069A3F2A0CD8510910ABD9
:104BB80003EB810102F01F020123934051F8382CC6
:104BC800134341F8383CE5682DB19DF8022001995E
:104BD80004AB2046A8479DF8021004AA2046FFF718
:104BE8006BFE10E051F8045B01357FF47DAF0132B4
:104BF80059E7012078E798457FF43EAF9DF8021009
:104C08002046FFF715FE00287FF436AF6BE71688BD
:104C180085E737B50C460546114620460192FFF751
:104C2800A1FC019A2146284603B0BDE83040FFF7B1
:104C380019BF70B586B0CE6801920C4602A9054628
:104C4800FFF722FE68B1E06858B1A378019A03F033
:104C58003003202B314602A805D1FFF7DAFF039B6A
:104C68006B6006B070BDFFF7FDFEF8E713B50C46A4
:104C78006946FFF73BFD60B1DDE900134A0842EAE7
:104C8800C372C9074FEA530344BFD243DB43C4E9A5
:104C9800002302B010BD37B50D4669461446FFF72C
:104CA800E5FF70B12B89082B0DD1DDE90032C4E98D
:104CB8000032DDE90001914208BF98420CBF012093
:104CC800002003B030BD042B03D1009B2360DA170A
:104CD800EFE7022B03D1BDF900302380F7E7012B62
:104CE80003D19DF900302370F1E70020E9E713B5FF
:104CF80004220C460DEB0201FFF782FC08B1019B70
:104D0800236002B010BD1146FFF7F1BF13B50822AA
:104D18000C466946FFF774FC18B1DDE90023C4E9C5
:104D2800002302B010BD1146FFF7F0BF0268530917
:104D380010B5044618D0012B40F2FF3318BF0023EA
:104D480002F01F02D340DB0704D409494FF4F67080
:104D5800FEF778F923681F2B83BF03F01F0305486C
:104D680023604FF0A04010BD4FF0FF33E8E700BFCD
:104D780004B0070000030050032813B5044603D904
:104D880008494120FEF75EF9074B01A81B5D019316
:104D9800FFF7CCFF019A01239340C0F80C3502B00D
:104DA80010BD00BF2FB0070079B00700032813B566
:104DB800044603D908494720FEF744F9074B01A8E0
:104DC8001B5D0193FFF7B2FF019A01239340C0F8DE
:104DD800083502B010BD00BF2FB0070079B007003A
:104DE80008B50020FFF7E2FF0120FFF7DFFF0220F0
:104DF800FFF7DCFFBDE808400320FFF7D7BF00003E
:104E0800F7B5C207044612D5134E0025032716F836
:104E1800013B019301A8FFF789FF019B013503F5C9
:104E2800E073042D40F82370F1D1FFF7D9FFA307F1
:104E380010D50A4D00240C2615F8013B019301A852
:104E4800FFF774FF019B013403F5E073042C40F86D
:104E58002360F1D103B0F0BD79B0070075B0070049
:104E680038B1054B0360054B4360012303720020F2
:104E780070470E20704700BFAF4E0700894E0700ED
:104E880069B10B78022B0CD1022804D0032814BF77
:104E980008201120704703230B70002070470E2054
:104EA80070470820704710B50C4681B10B78012B6C
:104EB80006D00ED9033B012B94BF0820112010BD4A
:104EC80003F028FE0028FAD102232370F7E70E200A
:104ED800F5E70820F3E7000070B5144B144A0C21DD
:104EE800D21AB2FBF1F2816911F8025C044635B9B5
:104EF80000690021914205D1012323600EE04FF0A3
:104F0800FF30F6E71E68AE420CD1461C07D19D68FB
:104F1800D4E90001D4E90223A847206070BD5E6887
:104F28008642F4D001310C33E4E700BF34A4070013
:104F380040A407001EF0040F0CBFEFF30880EFF346
:104F48000980FFF7C9BF00BF28B139B10023C1E903
:104F580000301846704748F21050704748F2135016
:104F6800704730B1036848F240508B4208BF0020B8
:104F7800704748F21050704728B148F211509142DA
:104F880008BF0020704748F21050704770B50646B9
:104F98000C461D46FFF7D8FF50B9B3794AB1AB426A
:104FA8000AD111462046FFF7DCF908B9044B236003
:104FB80070BD48F21050FBE748F21150F8E700BF07
:104FC8007052464D2DE9F0470C4606460F492046DB
:104FD800DDE9088915461F46FFF7C3FFA0B96368D6
:104FE8005A79494652004046FFF7C6FF60B94DB1AD
:104FF800CDF820803B462A4621463046BDE8F0479A
:10500800FFF7B7B948F21050BDE8F0877052464D27
:1050180010B5044638B149B10B684160984708B9E2
:10502800044B236010BD48F20150FBE748F21050D2
:10503800F8E700BF6E524648F0B4134648B1076817
:10504800094EB7420AD161B12AB14368F0BC5B6826
:10505800184748F201531846F0BC704748F202530B
:10506800F9E748F21053F6E76E524648F0B460B1DB
:1050780007680C4EB7420CD171B143681568DC68FB
:10508800A5420CD3F0BC9B68184748F20150F0BC0D
:10509800704748F20250FAE748F21350F7E748F22F
:1050A8001450F4E76E524648F7B50446DDE9086740
:1050B80015460193FFF7ACFF68B9019A29462046C7
:1050C800FFF7BAFF38B93A463146204603B0BDE883
:1050D800F040FFF7CBBF03B0F0BD0000F8B50A4FB2
:1050E8000A4C0B4EE41B0123E40833700025A5424B
:1050F80003D1022333700020F8BD57F835309847A4
:105108000028F9D10135F2E72CA407002CA40700E8
:10511800483F002038B50D46044618B908493320E1
:10512800FDF790FF691E21442046814200D238BD18
:1051380003780A7800F8012B01F80139F5E700BF78
:105148007DB0070070B50D461446064618B90A49E1
:105158004520FDF777FF1DB907494620FDF772FF87
:10516800621E3244013DB24200D270BD15F8013FC3
:1051780002F80139F7E700BF7DB0070070B51646A1
:1051880004460D46FFF7DEFF3246A919A019BDE80F
:105198007040FFF7D7BF38B50D460446FFF7BAFF92
:1051A80029466019BDE83840FFF7B4BF08B507289D
:1051B8001BD8DFE800F004121A1A1A041A04012096
:1051C800FFF71EFE0020FFF7D7FD0120FFF7D4FDF3
:1051D800BDE808400220FFF7E9BD0120FFF7E6FD22
:1051E800BDE808400220FFF7C7BD08BD08B5FDF7B8
:1051F800C1FCFDF79FFA0028FBD10D4D642445F052
:1052080001054FF47A40A847013CFAD1094BD3F87D
:10521800F020D20700D500BEBFF34F8FD968064AE9
:1052280001F4E0610A43DA60BFF34F8F00BFFDE786
:10523800A0B1070000ED00E00400FA0507B50B4631
:10524800064C07490092641AE408240402460549FA
:1052580044F00100FDF7E9FBFFF7C8FF40A4070091
:1052680040A4070018B1070008B50246054B0648D8
:1052780006491B1ADB081B0443F00100FDF7C2FBBB
:10528800FFF7B4FF40A4070040A407004FB1070090
:1052980010B501F0EDFE4FF48051002001F0CEFA78
:1052A80008B1FFF7E1FF1548C0F5FC2101F0C6FA87
:1052B80001460028F5D11248124CFDF7EBF9FDF72D
:1052C80013F9114B1149E41AE408240444F00300CB
:1052D800FDF794FB0E4801F04FF90028E1D1FDF7E6
:1052E80029FA0028FBD10B4944F00100FDF786FBA1
:1052F800FDF720FA0028FBD1D3E700BF0020070004
:10530800B16B070040A4070040A407006AB107007A
:10531800B551070076B107008B1810448B4200D1B5
:10532800704713F8012D00F8012DF7E70000000081
:105338000000000000000000C3F10803DB0070B5A6
:1053480001330446002003A55B1920C940CAAD19E2
:1053580020C4184720C940CA754120C420C940CA82
:10536800754120C420C940CA754120C420C940CA1B
:10537800754120C420C940CA754120C420C940CA0B
:10538800754120C420C940CA754120C4404170BD40
:105398000000000000000000C3F10803DB0070B546
:1053A8000133002403A500BF5B1920C940CAAD1B07
:1053B80020C0184720C940CAB54120C020C940CAEA
:1053C800B54120C020C940CAB54120C020C940CA43
:1053D800B54120C020C940CAB54120C020C940CA33
:1053E800B54120C020C940CAB54120C06441B4FAC3
:1053F80084F0400970BD00BF2DE9F04F08B4F8CA29
:1054080004B451F8042BA3FB028940F8048B4FF035
:10541800000AE4FB629A4FF0000BE5FB62AB4FF029
:10542800000CE6FB62BC4FF0000EE7FB62CE51F8C1
:10543800042B4FF00008E3FB628940F8048BE4FB7F
:10544800629AE5FB62ABE6FB62BCE7FB62CE51F811
:10545800042B4FF00008E3FB628940F8048BE4FB5F
:10546800629AE5FB62ABE6FB62BCE7FB62CE51F8F1
:10547800042B4FF00008E3FB628940F8048BE4FB3F
:10548800629AE5FB62ABE6FB62BCE7FB62CE51F8D1
:10549800042B4FF00008E3FB628940F8048BE4FB1F
:1054A800629AE5FB62ABE6FB62BCE7FB62CE40F8C2
:1054B800049B40F804AB40F804BB40F804CB40F828
:1054C80004EB0CBC052B00F01E810C68A0F1140045
:1054D800A1F11401A2F1140252F804EB4FF00005F7
:1054E80050F8046BE4FB6E5652F804EB50F8047B5A
:1054F800E4FB6E6752F804EB50F8048BE4FB6E781B
:1055080052F804EB50F8049BE4FB6E8952F804EB64
:1055180050F804ABE4FB6E9AA0F1140052F8044B67
:1055280051F804EB4FF0000CE4FB6EC540F804CBD7
:1055380051F804EBE4FB6E5640F8045B51F804EBB9
:10554800E4FB6E6740F8046B51F804EBE4FB6E78FB
:1055580040F8047B51F804EBE4FB6E8940F8048BB7
:1055680051F804EBE4FB6E9AA0E80006062B00F065
:10557800CA800C68A0F11800A1F11801A2F1180264
:1055880052F804EB4FF0000550F8046BE4FB6E563C
:1055980052F804EB50F8047BE4FB6E6752F804EB16
:1055A80050F8048BE4FB6E7852F804EB50F8049B37
:1055B800E4FB6E8952F804EB50F804ABE4FB6E9AF6
:1055C80052F804EB50F804BBE4FB6EABA0F11800F2
:1055D80052F8044B51F804EB4FF0000CE4FB6EC595
:1055E80040F804CB51F804EBE4FB6E5640F8045B3A
:1055F80051F804EBE4FB6E6740F8046B51F804EBD8
:10560800E4FB6E7840F8047B51F804EBE4FB6E8908
:1056180040F8048B51F804EBE4FB6E9A40F8049BC5
:1056280051F804EBE4FB6EABA0E8000C072B6AD042
:1056380008B40C68A0F11C00A1F11C01A2F11C0225
:1056480052F804EB4FF0000550F8046BE4FB6E567B
:1056580052F804EB50F8047BE4FB6E6752F804EB55
:1056680050F8048BE4FB6E7852F804EB50F8049B76
:10567800E4FB6E8952F804EB50F804ABE4FB6E9A35
:1056880052F804EB50F804BBE4FB6EAB52F804EBA1
:1056980050F804CBE4FB6EBCA0F11C0052F8044B9C
:1056A80051F804EB4FF00003E4FB6E3540F8043B7F
:1056B80051F804EBE4FB6E5640F8045B51F804EB38
:1056C800E4FB6E6740F8046B51F804EBE4FB6E787A
:1056D80040F8047B51F804EBE4FB6E8940F8048B36
:1056E80051F804EBE4FB6E9A40F8049B51F804EB84
:1056F800E4FB6EAB40F804AB51F804EBE4FB6EBC82
:10570800A0E8001808BCBDE8F08F002310B51C46BF
:105718005AB2914200DC10BD40F823400133F7E74C
:1057280010B500231A465CB2A14203DCB2FA82F03B
:10573800400910BD50F8234001332243F3E74A11D2
:10574800012350F8220001F01F0103FA01F108407B
:105758007047013910B549B2041D0A06CBB204D40A
:10576800013954F82120002AF7D001335BB273B114
:1057780003F18042013A50F82220002022B9013B6F
:1057880000EB431318B210BD52080130F6E7184673
:10579800F9E710B500235CB2A24200DC10BD51F855
:1057A800234040F823400133F5E710B5013A52B2DF
:1057B800130601D5002010BD50F8224051F82230C0
:1057C8009C4205D802F1FF32F2D24FF0FF30F2E7E7
:1057D8000120F0E700EB81010023884200D37047E5
:1057E80051F8042D43EA52030B60D307F5E737B5A8
:1057F8001D469DF9183001930446FFF79DFD019B56
:1058080038B91A4621462846FFF7CFFF0128019BE1
:1058180007D02A462146204603B0BDE83040FFF7AE
:10582800BBBD03B030BD37B51D469DF91830019397
:105838000446FFF7B1FD019B38B12A4621462046B0
:1058480003B0BDE83040FFF777BD03B030BD2DE9A8
:10585800F04FB5B004AC9DF9F8501F4680462B4672
:105868002046FFF7C9FD24AB29463846CDE9023466
:10587800FFF76FFFC0EB851004B2002C2146B8BFBC
:1058880004F11F01634203F01F0341F3471104F0C1
:105898001F0614A858BF5E42FFF737FF002E08B254
:1058A8002BDD14AB002203EB8000C6F1200E13465B
:1058B800AB4217D36B00019314AB03EB85096F1E42
:1058C80034AB012603EB8707002C54DA34AB03EB27
:1058D80086062A4656F8C81C4046FFF75AFF35B0D8
:1058E800BDE8F08F57F823C00CFA06F10A4340F8D8
:1058F800042B01332CFA0EF2DAE714AB2A463946A8
:1059080003EB8000FFF745FFD4E70FFA82FE5AF851
:10591800C83C53F82EB034AB03EB8202013052F886
:10592800803C0B44BBEB030334BF012200229B45A0
:1059380018BF11465CF8C82C42F82E30019B42B2C1
:105948009A42E2DB731A5E42294614A85E41FFF7C9
:1059580041FF34AB03EB8503294653F8802C57F8F5
:10596800803C43EAC27347F8803C4846013CFFF755
:1059780031FF24B2A8E734AB0020C6F1010C014680
:1059880003EB860A03EB8C0CD8E730B51C4691B0C4
:10599800054693F900306846FFF72EFDD4F8AC3081
:1059A80069462846984711B030BD13460A46FFF7A6
:1059B800ECBF2DE9F04793F9006092B004468946A0
:1059C8001046314615461F46FFF7AAFE002840F04C
:1059D80091803A46494602A8FFF7E7FF3B4602AAEC
:1059E80021460AA8FFF7D1FF02A908463A46FFF761
:1059F800DCFF3B462A4649464846FFF7C6FF07F103
:105A080004083A4629462846FFF7CFFF43462A4668
:105A1800214620460096FFF7EAFE43462A462946D5
:105A280028460096FFF7E3FE43462A4621462846C5
:105A38000096FFF7F8FE3B462A4621462046FFF728
:105A4800A4FF43462246214628460096FFF7CFFE8C
:105A5800434600962A4621462046FFF7C8FE23689B
:105A6800DB074AD53346424621462046FFF764FC09
:105A7800314682462046FFF7ADFE06F18043013BE2
:105A880054F8232042EACA7244F823203A462146B1
:105A98002846FFF78AFF43460AAA29462846009661
:105AA800FFF7C1FE43460AAA294628460096FFF793
:105AB800BAFE0AA9084643462A460096FFF7B3FEEF
:105AC8003B460AAA21462046FFF75FFF02AA434643
:105AD800104621460096FFF7A6FE32462946204684
:105AE800FFF757FE49462846FFF753FE02A94846E6
:105AF800FFF74FFE12B0BDE8F08731462046FFF7AA
:105B080069FEC3E72DE9F04115468AB004460E4602
:105B18001C22002103A804F000FC2F1D95F9008029
:105B280003232A46314620460293FFF73EFF3B46B1
:105B380002AA21462046CDF80080FFF774FE2B46C6
:105B4800324621462046FFF720FFCDF800803B462D
:105B580005F1840221462046FFF749FE0AB0BDE858
:105B6800F08100002DE9F042082288B0FFF711FE0D
:105B7800CB6A03930B6B04934B6B05938B6B069368
:105B8800CB6B07930C4681460027134669466A4645
:105B98006846CDE901770097FFF7CEFB0823054655
:105BA8006A4649464846FFF7C7FB236B0393636B76
:105BB8000493A36B0593E36B0544CDE906376A4666
:105BC800082369466846FFF7B7FB082305446A4679
:105BD80049464846FFF7B0FB236A0093636A01937E
:105BE800A36A0293A36B0693E36B07930544082308
:105BF8006A4649464846CDE904770397FFF79CFB78
:105C0800636A0093A36AA26B0193E36A0293049206
:105C1800636BE26B0393CDE90523236A07932E1880
:105C280008236A4649464846FFF786FBE36A00931D
:105C3800236B0193636B0293236A0693A36A07930A
:105C4800351808236A4649464846CDE9047703973C
:105C5800FFF7A2FB236B0093636B0193A36B029383
:105C6800E36B0393636A0693E36A07932E1A082388
:105C78006A4649464846CDE90477FFF78DFB636BD2
:105C88000093A36B0193E36B0293236A0393636A04
:105C98000493A36ACDE90537236B0793361A0823C3
:105CA8006A4649464846FFF777FBA36B0093E36BC8
:105CB800CDE90137636A0393A36A0493E36ACDE9E4
:105CC8000537636B0793361A08236A4649464846E0
:105CD800FFF762FB361A0E4C0FD436B90822494634
:105CE8002046FFF762FD01280FD0082322464946C7
:105CF8004846FFF751FB361AEFE708232246494684
:105D08004846FFF719FB3618F7D408B0BDE8F0820B
:105D1800ACB1070070B514468AB006460D461A465F
:105D2800214602A80193FFF740FE019B02AA3146D3
:105D38003046FFF72AFE02A9019B22460846FFF7D4
:105D480024FE019B02AA29462846FFF71EFE0AB038
:105D580070BD2DE9F0478AB01446DDF848A05546D5
:105D68001F4615F9046B0096804689462B46024665
:105D7800214602A8FFF757FD02A952460846FFF739
:105D880014FE534602AA41464046FFF7FEFD53461D
:105D980002AA21462046FFF7F8FD2B464A46394617
:105DA80038460096FFF73FFD5246394602A8FFF7EE
:105DB800FCFD02A92B46424608460096FFF733FD34
:105DC80002A92B46224608460096FFF72CFD2B46D3
:105DD8004246214620460096FFF725FD53462246B7
:105DE80049464846FFF7D1FD2B4602AA41462046C0
:105DF8000096FFF718FD5346224639463846FFF706
:105E0800C4FD2B464A46394638460096FFF70BFD37
:105E1800324602A92046FFF7BCFC0AB0BDE8F0876D
:105E28002DE9F0471F46B3F9023013F11F0448BFAC
:105E380003F13E04DD1D48BF03F10E056611EC10A9
:105E4800944275B228BF144689462946FFF75DFC7F
:105E5800224649468046FFF75FFAB7F90230B3EBAE
:105E6800C40F4FEAC4021FD2D21A08EB86040021DD
:105E7800C2F12006A0450ED324372A4641463846AB
:105E8800FFF793FC01280FD02B463A464046BDE861
:105E9800F047FFF781BA54F8040D20FA02F30B43D8
:105EA800236000FA06F1E5E7BDE8F08770B50368FE
:105EB80013F001060546144605D013460A46014666
:105EC800FFF73AFA064621462846FFF783FC46B113
:105ED80004F18042013A55F8223043F0004345F876
:105EE800223070BDF0B50F46A1B0064619463846B7
:105EF80015461C46FFF714FC28B1304621B0BDE812
:105F0800F040FFF702BC224639466846FFF741FCDD
:105F1800294608A8FFF73DFC10A82146FFF7F5FB26
:105F2800012318A81093FFF7F0FB224608A968463A
:105F3800FFF73BFC30B9224610A93046FFF729FC91
:105F480021B0F0BD009BDA0709D421466846FFF767
:105F580041FC2246294610A8FFF7A8FFE5E7089B61
:105F6800DB0707D4214608A8FFF734FC2246294658
:105F780018A8F1E7002823461CDD08AA69466846E8
:105F8800FFF70AFA21466846FFF724FC224618A9BB
:105F980010A8FFF70AFC002805DA10A923462A46AC
:105FA8000846FFF7C9F910A9234618AA0846FFF7BB
:105FB800F3F9CEE76A4608A8FFF7EEF9214608A8E4
:105FC800FFF708FC224610A918A8FFF7EEFB0028E7
:105FD80005DA18A923462A460846FFF7ADF918A995
:105FE800234610AA0846FFF7D7F9BFE700487047CD
:105FF800A8B107002DE9F04F2DED028BEBB00D464F
:10600800769E03901946B6F9023096F9004013F1CE
:106018001F0848BF03F13E0848F3471808F1FF3B43
:1060280022AB002743F82B706AAB03EB8B034AA81B
:1060380043F8807C43F8607C924696F90120FFF78C
:106048006BF996F9012052A81144FFF765F921462A
:106058004AA8FFF765FB8146002840F0278152A82F
:10606800FFF75EFB0290002840F0228106F1240928
:1060780042464AA94846FFF798FB012840F01A8192
:10608800424652A94846FFF790FB0128049040F089
:1060980011810AAF43464A461AA8FFF723FF029B1D
:1060A80047F82B305246294638463346FFF7B8FEA4
:1060B800394638464B461AAACDF80080FFF7C7FB89
:1060C8005AAD4B461AAA4AA912A8CDF80080FFF784
:1060D800BEFB224628460399FFF75BFBA300059306
:1060E800039B05EB840A03EB840106F1440B50463D
:1060F800FFF74FFB594632A8FFF74BFBA3000BEB0A
:1061080003013AA8FFF745FB331D294632AA1AA80E
:10611800009408EE103AFFF786FB53462A463AA940
:1061280032A80096FFF715FE1AA9084618EE102A9D
:106138002346FFF7D7FE1AAA514628463346FFF7EB
:10614800E9FD029BCDE9063B039B41463846CDE974
:106158000835FFF7FEFA4146834612A8FFF7F9FA19
:106168005845B8BF584685B2691E09B238460391EA
:10617800FFF7E5FA0399071E12A818BF0127FFF7D2
:10618800DEFA002814BF022000200DF1180A074388
:1061980022465AF8271022A8FFF7FBFA0DF1A80BA0
:1061A800A30019445846FFF7F4FA1AA82146FFF746
:1061B800ACFA049B0360023D22AB2DB203938246E6
:1061C800002D26DA18EE102A234651465046FFF7CE
:1061D80089FE0398334652465946FFF79BFD0399BB
:1061E80042464846FFF7E1FA012804D043464A46AA
:1061F8000846FFF7D1F8013C64B24AAA23064AD5FB
:10620800029BB3FA83F040096BB0BDEC028BBDE88A
:10621800F08F33465246D6F8A47003985946B847CB
:1062280029460AA8FFF78BFA2946071E12A818BFA5
:106238000127FFF784FA002814BF02200020074333
:1062480006AB53F8271019B3224632A8FFF7A1FA74
:10625800059B3AA81944FFF79CFA01463346524673
:1062680032A8FFF757FD18EE103A0399009432AAA6
:1062780042A8FFF7D8FA039A00965B463AA932A8D3
:10628800FFF767FD334642AA51465046FFF77DFBAC
:10629800013D2DB294E7039B52F8241053F82430A3
:1062A8004B40029919430291013CA7E73846ABE7F6
:1062B8004846A9E70298A7E70369C26893429CBFCA
:1062C80080681B18013B981A70472DE9F843D0E9FC
:1062D80002940546A9EB04084068904520440F46FF
:1062E800144404D903F0F0FFEC60BDE8F88342469B
:1062F800A4EB090403F0E8FF6868224607EB0801ED
:10630800F0E72DE9F843C5680646894617464FF079
:1063180000083469B3687068A54228BFE418013CD6
:10632800621B5C1BBC4228BF3C46944228BF1446F3
:1063380049462844224603F0C7FFB3682544AB42C8
:1063480008BF00253F1BA044A144F560E1D14046A9
:10635800BDE8F88310B5114C114AA2610223C4E9C3
:106368000433104BE361A2644FF480530E4A0F4983
:106378002362E26400231022E01DA3626362E362E9
:10638800A3656365E365226503F0FAFF08492046C3
:1063980003F0F6FF2023A37110BD00BF4C3F00207F
:1063A80058B20700D43F0020C43F002061B2070064
:1063B80065B2070070B5164B182400FB04451D4450
:1063C80004FB00331646DC6A012C0ED0022C18D0D0
:1063D800E4B92846FFF770FF864204D832462846BB
:1063E800FFF773FF3446204670BD2846FFF764FF69
:1063F8008642344628BF044622462846FFF765FFF2
:10640800F1E72846BDE87040FFF77BBF0024EAE7C4
:106418004C3F0020FFF79EBF41DF7047014B012230
:106428001A707047F45300200268530910B50446E7
:1064380018D0012B40F2FF3318BF002302F01F02CF
:10644800D340DB0704D409494FF4F670FCF7FAFD92
:1064580023681F2B83BF03F01F03054823604FF0F9
:10646800A04010BD4FF0FF33E8E700BF04B00700BD
:106478000003005008B5FCF77DFBFCF75BF900282A
:10648800FBD1BFF34F8F0549054BCA6802F4E062A0
:106498001343CB60BFF34F8F00BFFDE700ED00E073
:1064A8000400FA0508B50948094B0A49C01AC0088A
:1064B800000440F00400FCF7A1FA074B074800224B
:1064C8001A70BDE8084002F0CBBA00BF40A407002C
:1064D80040A407006CB20700F45300207D64070055
:1064E80008B50748074B0849C01AC008000440F01F
:1064F8000300FCF783FABDE80840FFF7D3BF00BFED
:1065080040A4070040A4070082B20700042810B581
:10651800044609D802280DD812D00B4B1B6893B13A
:106528002046BDE810401847831F012BF5D8FFF718
:10653800B9FFF2E705494FF4701000F0F5FAECE7FF
:1065480002F082F9E9E710BDF8530020E96407007A
:1065580008B50648064B0749C01AC008000440F0B1
:106568000400FCF74BFA002008BD00BF40A4070058
:1065780040A4070096B20700F7B5774B774C7849E7
:10658800E41AE408240444F0040605463046FCF7FF
:1065980035FA744B68461D6019230093FFF744FFD2
:1065A800009B714A03F5E07340F82320002002F0B5
:1065B8006DFA002840F0CA8000F064FC012800F061
:1065C800BE80022800F0C580002840F0BF804FF050
:1065D8008043D3F8005415F480354CD04FF4803202
:1065E800C3F800240546614F3B6A012B56D0604929
:1065F80044F00300FCF702FA5E493046FCF7FEF966
:106608004FF4701400F092FD5B4A20211820FCF72B
:10661800E9FB08B1FEF728FE4FF08043D3F81C25AC
:1066280002F0F802B02A09D1D3F81C25D20742BFDC
:10663800D3F81C2502F04E02C3F81C25FFF788FF8B
:10664800002840F0838020464C4900F06DFA4C4801
:1066580000F098FE002879D14A493046FCF7CEF977
:1066680000F0AAFDFCF746FCFCF764F80028F7D117
:10667800FFF7D2FEF4E7D3F8202502F0F802A82AA3
:106688000AD1D3F82025D00706D5D3F8202502F063
:106698005602C3F82025A6E70125A4E74FF4405386
:1066A8005A68394B9A420FD17A6B1DB997F8603204
:1066B800012B09D035484FF4805103F041F818B93F
:1066C800334944F0020095E702F006FBBA69014637
:1066D8001DB997F8A132012B05D02E4803F030F8E8
:1066E80008B92D49EDE72D493046FCF787F91923FC
:1066F80001A80193FFF798FE019AD0F81035D3400E
:10670800D90701D4264978E74FF08043D3F81C35E0
:1067180013F0B10F01D023496FE702F037FAA8B997
:10672800214D2870214802F09BF92B7823B9204984
:106738004FF40270FCF786FC00F03EF801E0FFF72A
:10674800B1FE1C4944F00100FCF758F9032003B0DE
:10675800F0BD4FF4A02455E740A4070040A407006B
:10676800B0B20700F85300200C000300CC6B0020E7
:10677800C7B2070065B30700D44F0020E9640700DB
:1067880015650700D4B30700DBE5B1512C6E002076
:10679800F5B207006D6E002030B3070058B307004C
:1067A80088B30700A7B30700F45300202564070047
:1067B800E4B30700C8B3070037B5184B184C194D98
:1067C8001949E41AE408240444F004004FF4805200
:1067D8000190FCF717F9D5F8802014490198FCF7C7
:1067E80011F94FF0FF33C5F88030C5F88031C5F88E
:1067F8008430C5F8843101F0DFFC20B10C4944F045
:106808000100FCF7FBF8FBF795FF0028FBD14FF4DC
:10681800805003B0BDE8304000F032B840A4070013
:1068280040A4070000E100E040B4070076B4070088
:10683800A0B4070080F308880847000070B5054633
:10684800C1F30B00A8B9B5F5FE2F12D80B4E32686C
:10685800072A10D8130103F1804404F5F0340132FB
:10686800C4F80058C4F804180221C4F808183260A3
:1068780070BD0720FCE70420FAE700BFFC530020A6
:1068880038B504462648C0F5FE21FFF7D7FF054670
:1068980068B12448244B25491B1ADB081B0443F024
:1068A80001002A46FCF7AEF82846FEF7DDFC02F0A8
:1068B80013FA1F4B9B6903F6FF7323F47F6323F0DE
:1068C8000F0319180020FFF7B9FF054668B11548EE
:1068D800154B18491B1ADB081B0443F001002A4614
:1068E800FCF790F82846FEF7BFFCEFF3058200237B
:1068F800D4E9005483F3148883F3108883F3118850
:1069080083F31388C2F308021AB10B495820FCF725
:1069180099FB21462846BDE83840FFF78BBF00BFEA
:106928000020070040A4070040A40700D5B40700D2
:10693800CC6B00200CB5070040B5070073B5274B9A
:10694800064627481B1ADB081B040C463246254915
:1069580043F00400FCF756F8B4F1807F39D322499C
:106968008F20FCF76FFB6FF07F41A14228BF2146C3
:106978001E4B641AD3F80455631E942B96BF9634A5
:10698800746074600D44347B25F07F4598BF963D54
:10699800032C03D914497720FCF754FB134E04F554
:1069A800A8734FF4F86046F82350114B43F00103E5
:1069B8009847104BA200134400221A601B680193E9
:1069C800019B4FF4803303FA04F4C6F8044302B081
:1069D80070BD952CC7D804499020C2E740A4070091
:1069E80040A40700ACB50700C2B50700004002404C
:1069F80050B60700404102401FB518490B7853BBF9
:106A08004FF08043A024D3F81824D2035CBF01229E
:106A18009A60134B0022C3F80021D3F800010390B9
:106A28000398C3F84021D3F8400102900298C3F8B4
:106A38004421D3F84401019001980A4880F824437E
:106A4800102444600220C3F8082501229A601A60C5
:106A5800C3F804030A7004B010BD00BF045400203A
:106A68000040024000E100E0264B2DE9F743D3F84F
:106A7800042152B124490A6801320A600022C3F88D
:106A88000421D3F804310093009B204D204B214C66
:106A9800214EDFF89080DFF86C90204FED1AED085A
:106AA8002D0445F004053368CBB100233360336807
:106AB8000193224641462846019BFBF7A3FF227B10
:106AC80017494FF480339340C9F8083322462846C3
:106AD800FBF798FF616851B12046FFF72FFF043696
:106AE800BE4204F11004DED103B0BDE8F083A16812
:106AF80011B12046FFF722FF2368002BEFD09847FB
:106B0800EDE700BF004002400054002040A4070009
:106B180040A40700042B00204041024048410240A5
:106B28003BB6070029B60700F8B5114B114E0446CD
:106B3800114837681B1ADB081B043A4643F0040067
:106B48000D460E49FBF75EFF3A7B4FF480339340C6
:106B58000B4AC2F808334CB13668FFF74DFF356071
:106B680021463046BDE8F840FFF7E8BEF8BD00BF53
:106B780040A40700242B002040A4070029B60700E2
:106B88000040024070B5074B1D6804460E46A860D9
:106B9800FFF732FF2E6021462846BDE87040FFF718
:106BA800CDBE00BF282B0020034A044B1068D3F841
:106BB800043503EB00607047005400200040024099
:106BC800014B01221A70704705540020224BDA6AE3
:106BD800AC2A2DE9F3415F6A9D6C1FD15B6B1D44A4
:106BE800FF1A1E4B1E4E1F4A1F490097F61AF60839
:106BF800360446F004082B464046FBF716FF1948B2
:106C08003A46294603F029FB044668B91749404625
:106C1800FBF7F4FE204602B0BDE8F081002DE0D17C
:106C280002F06EF80546DCE711493B462A46404625
:106C3800FBF7F1FEFBF77EFD0028FBD100F0BCFA64
:106C48003946284601F09AFA04460028E2D0094954
:106C580046F00100DCE700BFCC6B002040A4070031
:106C680040A407000020070056B607008BB60700AF
:106C7800C2B60700EFB607002DE9F04F3C4B1646A9
:106C88003C4A9B1A87B0DB081B04814205460F4625
:106C9800049343F0040B08D137495846FBF7AEFE7E
:106CA8000024204607B0BDE8F08F03D233494F20B7
:106CB800FCF7C8F936B1C5F30B031BB12F495320B4
:106CC800FCF7C0F97B1BB3F5805F4FEA133403D29E
:106CD8002A495720FCF7B6F900F028FA082C28BFF3
:106CE800082406F6FF7923034FEA1939039405931C
:106CF8000EB93446D5E7039B4B453ABFDDF80CA0E7
:106D0800DDF81480CA464FF000025146284628BFD5
:106D1800B04601F0EDF904460028C2D11849CDF873
:106D280000802B463A465846FBF77FFE08F10302DF
:106D3800234622F003023946284601F09BF904460F
:106D48000028AED10F4A136B4344136301F08EFE43
:106D5800A9EB0A09A6EB080645444744044600285F
:106D6800C6D0049B084943F00100FBF747FE98E7AB
:106D780040A4070040A4070009B7070018B7070098
:106D880082B70700CC6B0020A3B707002DE9F743B3
:106D980001F0C6FF314C324BDFF8E4903149D9F8A5
:106DA8004860D9F83080D9F83450E41AE40824044B
:106DB800074644F004000190FBF720FE06F5005357
:106DC80001985A68284B9A4209D0284944F0010092
:106DD800FBF714FE0325284603B0BDE8F083D9F875
:106DE8003030AB421E4404D12149FBF707FE002591
:106DF800F1E7C3B94FF440521178142982BF1D49F5
:106E08005269B2FBF1F206F5005198BF1A4691F8A3
:106E180000C0BCF1140F82BF4969164BB1FBF3F3F4
:106E28001549FBF7F8FDA5EB080202F6FF7222F4FC
:106E38007F6222F00F02314607EB0800FFF71CFFC4
:106E4800054628B10D4944F00100FBF7D7FDC2E71C
:106E580003B0BDE8F04301F009BE00BF40A407003D
:106E680040A40700DCB70700DBE5B15101B8070013
:106E780035B8070040420F0047B8070070B8070050
:106E8800CC6B00202DE9F047624B634D634E64499B
:106E9800ED1AED082D0445F004073846FBF7AEFD62
:106EA800F36AAA2B00F09A800CD8012B22D0A52BCC
:106EB80000F0888045F003005A49FBF79FFD002049
:106EC800BDE8F087AC2BF5D157493846FBF796FD5E
:106ED80056493846FBF792FDFFF758FF044600284D
:106EE80000F08680524945F00100FBF787FD4FF01E
:106EF800010823E04F493846FBF780FDD6F8249077
:106F0800D6F848A001F0E8FE346B4B4900EB0408C2
:106F18003846FBF773FD316B5144884514BFA9EB24
:106F2800040200224046FFF7A7FE044670B1434919
:106F380045F00100FBF762FD4FF00008F36A404995
:106F4800224645F00100FBF766FD13E001F0C4FEA0
:106F580022464946FCF75AF8B26A904280462AD13E
:106F680038493846FBF74AFD0123C6E90783C6F8C6
:106F78001890A0463448DFF8F49001F0A3FE0023EF
:106F8800324889F8003001F071FD99F80030044664
:106F980023B92F4940F2A510FCF754F88CBBB8F17F
:106FA800000F35D0336A012B32D138462949FBF717
:106FB80025FD022084E70346274945F00100FBF739
:106FC8002AFDD6E725493846FBF718FDFFF7DEFE10
:106FD8004FF001080446002CCCD0AFE720493846D2
:106FE800FBF70CFDFFF7F2FD4FF000080446F2E74F
:106FF800FFF7ECFD044608B11A4974E74FF00108A1
:10700800B8E745F001001849FBF7F8FC032057E7FB
:10701800012055E740A4070040A40700CC6B0020DE
:1070280089B8070095B907003EB907004CB90700B1
:1070380069B90700AAB80700B4B8070070B8070014
:10704800AEB90700CFB80700F06B0020C96B070086
:1070580018B70700E0B90700E4B807002CB9070023
:1070680035B907007FB907003CBA0700055400206E
:1070780010B50024D4F8F83F013304D1084940F68C
:10708800F870FDF735F9D4F8FC3F013307D1BDE8B6
:1070980010404FF4FC2140F6FC70FDF729B910BDF3
:1070A800002007000A4AD2F800347BB109480023BF
:1070B800D2F80815D940C90748BF03F5C07103F1D4
:1070C800010348BF42F82100072BF1D1704700BFE8
:1070D800000001403546526E08B50748074B08497D
:1070E800C01AC008000440F00300FBF787FCBDE8A5
:1070F8000840FFF7D7BF00BF50A4070040A407000F
:1071080056BA070007B5084B0022C3F80021D3F888
:1071180000310193019BFBF72DFDFBF70BFB0028CA
:10712800FBD103B05DF804FB0000014037B5194DF1
:107138002B784BBB18481949194B401AC008D3F88B
:107148000024000440F0030002B3D3F804451549B5
:1071580001902246FBF756FC40F616529442B8BFFF
:107168001446A4F54864FFF79DFF01980E4922468E
:10717800FBF748FC0D492046FFF704FD0C4B4FF484
:1071880080321A6001232B7003B030BD0949FBF728
:1071980035FCF7E70654002050A4070040A4070078
:1071A8000000014064BA07007DBA0700E1700700DB
:1071B80000E100E0AFBA0700034BD3F800340BB18D
:1071C800FFF770BF704700BF000001404FF08053C9
:1071D800D3F830210D2A55D14FF080410022C1F853
:1071E8000C21C1F81021C1F838254A4AD3F8040403
:1071F800C2F82005D3F80804C2F82405D3F80C0413
:10720800C2F82805D3F81004C2F82C05D3F81404E2
:10721800C2F83005D3F81804C2F83405D3F81C04B2
:10722800C2F84005D3F82004C2F84405D3F8240472
:10723800C2F84805D3F82804C2F84C05D3F82C0442
:10724800C2F85005D3F83004C2F85405D3F8340412
:10725800C2F86005D3F83804C2F86405D3F83C04D2
:10726800C2F86805D3F84004C2F86C05D3F8443472
:10727800C2F87035D1F80034DB0744BF6FF0010362
:10728800C1F80034244AD2F8883043F47003C2F8B5
:107298008830BFF34F8FBFF36F8F4FF01023D3F8B1
:1072A8000022002A03DBD3F80432002B2EDA1B4B12
:1072B8000122C3F80425D3F80024002AFBD04FF09C
:1072C80010221221C2F80012D3F80024002AFBD0A1
:1072D8004FF010231222C3F80422104BD3F80024D5
:1072E800002AFBD00022C3F80425D3F80024002A82
:1072F800FBD0BFF34F8F0849094BCA6802F4E0621C
:107308001343CB60BFF34F8F00BFFDE7054B064A21
:107318001A60704700C0004000ED00E000E0014046
:107328000400FA052C2B00200090D00313681F2BB3
:1073380010B5144607D900220830FCF73AFF08B9FF
:107348002023236010BD48F21450FBE70830FCF7F7
:107358000DBF0830FCF7DABE008800F00100704766
:10736800831F012B10B5044602D8002001F070FCE1
:10737800034B1B681BB12046BDE81040184710BDE1
:107388000854002038B5104B104C1860104B1149A8
:10739800E41AE408240444F00300FBF72FFB002060
:1073A800FFF7DEFF0C4801F019FC054620B9BDE8DF
:1073B8003840094801F0BEB90246084944F00100C6
:1073C800FBF720FB284638BD0854002040A40700DE
:1073D80040A40700A4BC070069730700B7BC0700F6
:1073E8006CDF70476DDF704772DF704773DF70477F
:1073F80074DF704775DF704776DF70477ADF704754
:107408007CDF70477DDF70477FDF704786DF70471E
:107418008FDF704790DF7047A8DF7047AADF70479B
:10742800ADDF7047AEDF7047B0DF7047B1DF704740
:10743800B5DF704762DF704766DF704713DF70475C
:1074480010B5094B0949044609481B1ADB081B04F7
:10745800224643F00400FBF7D5FA21460548BDE86B
:107468001040FBF76FBF00BF58A40700E1BC07003E
:1074780040A40700C4A4070070B518228CB00DEB17
:107488000200002102F049FF282308932348244BD7
:107498002449254CC01AC0080004012540F0040006
:1074A8008DF818508DF82D50FBF7A8FA1623ADF873
:1074B80006300023CDE90333059302230622237007
:1074C800237159230926A27063710322FE23657074
:1074D800E270A3710DF10601A0190294ADF80C60D9
:1074E800FFF790FFB8B9BDF8063026725A19E27155
:1074F800BDF80C200D4C134402A906AA2046ADF88D
:107508000C30FFF771FF30B92078FFF771FF207852
:107518002946FFF76BFF0CB070BD00BF58A40700E9
:1075280040A40700F3BC07008A640020302B002029
:10753800F0B50388242B8FB0044651D80BB90FB08F
:10754800F0BD013B232BFAD801A252F823F000BF6B
:107558004979070047750700477507004775070011
:107568004775070047750700477507004775070007
:1075780047750700477507004775070047750700F7
:107588004775070047750700477507001976070014
:107598005D76070001780700B5770700597A07007C
:1075A80047750700477507004775070047750700C7
:1075B800477507007B7A070047750700477507007E
:1075C80047750700477507003D78070047750700AE
:1075D8009B7807007D780700697707009777070091
:1075E800503B9AB2062AAAD8062BA8D801A252F86C
:1075F80023F000BF8B760700557907007B7A0700D8
:10760800477507004775070011770700C37807001B
:10761800AF4BB04DB049B14EED1AED082D0445F011
:107628000400FBF7EBF9A3883380AD4B1B680BB163
:1076380001209847AB493088FFF7DCFE0246002856
:107648003FF47DAFA84945F001000FB0BDE8F04018
:10765800FBF7D8B9A14B4FF6FF721A80A34B1B68F2
:107668005A0704D4FFF708FF08B1FDF7FDFD9C4B4E
:107678001B68002B3FF463AF02200FB0BDE8F04059
:1076880018479B4FE288BB889A427FF458AF9948C5
:10769800904DFBF72BFE8E4BED1AED082D04064698
:1076A80038B9954945F002000FB0BDE8F040FBF746
:1076B800A5B9F4230093238A9049024645F00400B3
:1076C800FBF7B3F9228A04F11201304602F0FCFDFF
:1076D8001822002108A802F020FE08238DF8203087
:1076E800874B0A93874B0997CDE90B3608A8238A5D
:1076F800ADF8343000F0FEFF00283FF420AF7D489D
:107708003146FBF71FFE1AE7E288F62A24D8D31E73
:107718009B0723D0D31F9BB2013B594201F00301C1
:1077280003F0030302F1FF3458BF4B42E31A9CB243
:10773800674B68487449C01AC0080004234640F0E3
:107748000400FBF768F9654B21461888FFF770FEBF
:1077580000283FF4F4AE88E0F724E9E71446E7E7A9
:107768005B4B5C486949C01AC008000440F004003B
:10777800FBF744F90022A08808A9CDE90822FFF701
:1077880049FE00283FF4DBAEFDF76EFDD7E6504B0F
:10779800504862895E49C01AC008E389000440F075
:1077A80004000FB0BDE8F040FBF735B9484B494C31
:1077B80058494A4DE41AE408240444F004042046D5
:1077C800FBF71CF902230893288806AB08AA42F69F
:1077D80005210993FFF724FE08B1FDF745FDBDF823
:1077E80018204D492046FBF70DF9002328881A4632
:1077F8008521FFF709FEC4E7354B36484749C01ACB
:10780800C008000440F004000390FBF7F7F8628911
:1078180043490398FBF7F6F8228942490398FBF796
:10782800F1F8A28940490398FBF7ECF8E2893F494F
:1078380003980AE7264B274D3D49ED1AED082D041C
:1078480045F00400FBF7DAF8244B04F10801188826
:10785800FFF7D0FD044600283FF471AE02463549D3
:1078680045F00100FBF7CEF820460FB0BDE8F04028
:10787800FDF7FABC164B17482F49C01AC008237ADF
:1078880000930004637AA27A40F00400FBF7CDF875
:1078980055E60F4B0F482949C01AC008000440F0AC
:1078A8000400FBF7ABF80023A0888DF8203008A966
:1078B8008DF82130FFF7ACFD63E7A379002B7FF447
:1078C8003EAE064B13211888FFF796FD40E700BF30
:1078D80040A4070058A4070002BD0700322B00206F
:1078E800B064002046C207000CBD0700AC6400204D
:1078F80076640020C4A407003ABD070059BD0700FC
:10790800BD7B07004974070079BD0700BFBD0700AC
:10791800F0BD07002EBE070056BE070079BE07005F
:10792800A0BE0700B6BE0700CCBE0700DEBE07003B
:10793800F3BE070022BF070057BF070091BF07002B
:10794800554B00211888FFF777FD01E7A379002B35
:107958003FF4F5AD022B7FF4F2AD504D2189AA8991
:1079680091427FF4ECADA27B012A7FF4E8AD4FF49D
:1079780080320992228A484EADF82820628AADF8F2
:107988002A2004F114020B9205AF298A3088089343
:1079980006AA06930797FFF743FD60B93846FFF735
:1079A800DBFC40B940F2FD133088ADF8243008A95B
:1079B800FFF73AFDC3E5002308A93088ADF8243065
:1079C800FFF732FD014600287FF4B9AD182208A858
:1079D80002F0A3FC237D324A8DF82030022B099552
:1079E8000A9224D0062B10D0012B10D12D4B1A88C7
:1079F8002D4B1A80637DD4F816200C93012B0D9221
:107A080005D12A4801F024F901E0637D0C9308A808
:107A180000F070FE00283FF492AD254A254B264918
:107A28009B1ADB081B04024643F001000DE6204BBD
:107A380020482249C01AC008000440F00400FAF7A0
:107A4800DDFF184AB4F815301380174A1380DEE7B3
:107A5800174B18481A49C01AC008000440F004001F
:107A6800FAF7CCFF0023A0881A461946FFF7CEFC88
:107A78006EE60023A0881A461946FFF7D7FC08B11E
:107A8800FDF7F2FB0B480A4B0E49C01AC008000468
:107A980040F0040008E600BF322B00207664002086
:107AA800BD7B0700B4640020B66400202CA4070046
:107AB80040A4070058A40700CCBF0700BABF0700BE
:107AC80000C0070026C0070070B5204E346814F0C7
