:020000022000DC
:1070000088F502200171020081B3020001E602004E
:1070100081B3020081B3020081B3020000000000CE
:1070200000000000000000000000000081B302002A
:1070300081B302000000000081B3020081B30200AE
:1070400081B3020081B3020081B3020081B3020068
:1070500081B3020081B30200BBB1020081B3020020
:1070600081B3020081B3020081B3020081B3020048
:1070700081B3020081B3020081B3020081B3020038
:1070800081B3020009B0020081B3020081B30200A3
:1070900081B3020081B302003DA9020081B3020066
:1070A00081B3020081B3020081B3020081B3020008
:1070B00081B3020081B30200000000000000000064
:1070C00081B3020081B3020081B3020081B30200E8
:1070D00081B3020081B3020081B3020081B30200D8
:1070E00081B3020081B3020081B3020000000000FE
:1070F0000000000081B302000000000081B3020024
:107100004FF0FF34A64604F03CF9A6460D480E4960
:107110000022814201D004C0FBE70C480C490D4A13
:10712000814202D008CA08C0FAE70B484FF4700148
:1071300002680A430260BFF34F8FBFF36F8F00F006
:107140009BF800DEF8F5002050FD002088F50020B7
:10715000F8F500200000030088ED00E080B56F46E0
:1071600082B04FF2F851C2F200010A68531C0B6062
:107170000021CDE90021694604F06CFE02B080BD1B
:10718000F0B503AF2DE9000B96B04EF218608846BB
:10719000C0F2020002F019FFADF8040010200090C8
:1071A00002208DF81A0041F21110C0F202004EF2D6
:1071B0005864ADF818000025ADF81C00684604308E
:1071C0004FF00109C0F202044FF001328DF80610B1
:1071D0000321CDF814900494CDF809208DF80850BF
:1071E0008DF81E10CDE90A55CDE9085502F02BFFA8
:1071F0009DF8091007AE9DF8082009969DF80A60D1
:10720000C900089041EA42019DF80B0041EA0611CD
:10721000CDE90D55009B41EA40108DF83400B8F8D7
:107220000000ADF82C3006AB13950C94ADF8289007
:107230001195CDE90F551293CDE9145503F0A1FD39
:107240000DA908AA14ABAADF01F040FE30B1084630
:1072500002F0D9FC030C0121002204E0BDF8540027
:107260000021BDF8502041EA0242C0EA0341104625
:1072700016B0BDE8000BF0BD80B56F4600F000F819
:1072800080B56F46A6B04FF2E86940F25011C2F2E5
:10729000000909F11800C2F201014FF400424FF455
:1072A000004804F0CAFF23A804F06FFE9DF8960082
:1072B00002281AD023AA12AB07CA07C340F21D0046
:1072C000C0F2000004F074FE12AD01A9ADF8040094
:1072D000284604F037FE284604F01EFE12AA01AB31
:1072E00007CA07C301A804F055FE03F050FD18219A
:1072F0000120ADF82010C0F20070BDF86E1001251D
:10730000ADF82E1040F20111C0F20331CDF831007A
:10731000CDF83B104FF48071002002914EF269616C
:107320000623C0F20201CDF8350019900126CDE9FF
:107330001700C0F20015CDE91500ADF83F00ADF81B
:107340003900CDF84100ADF8450001A8DDF86A200C
:107350008DF81E30DDF8663003914FF004118DF882
:107360003060ADF81C60CDF82250CDF82A20CDF861
:10737000263001960491CDE9056802F066FF12AD52
:107380001C90284604F0F7F809F11400D0E84F1FCC
:1073900059B9C0E8416F0029F8D195E85E00484628
:1073A0005EC01CA9484600F026F81DA8BFF32F8F29
:1073B00004F0EBFD9DF87E0002281AD01DAA20AB38
:1073C00007CA07C340F25700C0F2000004F0F0FD06
:1073D00020AC23A9ADF88C00204604F0B3FD204674
:1073E00004F09AFD20AA23AB07CA07C323A804F020
:1073F000D1FD04F0DEFD80B56F468AB00E4604462E
:1074000004F03AFB4FF200610546C2F20001366813
:1074100051E8020F48B90320BFF35F8F41E8020231
:10742000BAB151E8022F002AF8D0BFF32F8F684677
:10743000BFF35F8F04F0A9FD9DF80A00022853D026
:107440009DE8070003AB07C340F21E00C0F2000036
:1074500031E00020BFF35F8F81F8340047F2116004
:10746000C0F202000E624861284604F0E8F84FF2CC
:107470003861C2F2000151E8020F48B90320BFF39E
:107480005F8F41E802028AB351E8022F002AF8D048
:10749000BFF32F8F6846BFF35F8F04F076FD9DF832
:1074A0000A00022820D09DE8070003AB07C340F282
:1074B0001F00C0F2000004F07BFD03AC06A9ADF88C
:1074C0001800204604F03EFD09A8214604F05DF8AE
:1074D000204604F021FD059A03980499089207912B
:1074E000069006A804F056FD04F063FD0020BFF3EB
:1074F0005F8F81F8380047F25160C0F202000E62DF
:107500004861284604F09BF8204604F00DF904F089
:10751000F6FEF9E7D0B502AF82B04FF6596002F03F
:1075200052FDADF80000002027F80A0C68468DF8DF
:10753000021002F088FD0446012003F024FCA7F1AC
:107540000A022146A8DF01F0C1FC30B1084602F072
:107550005AFB0146012002B0D0BD37F80A0CA7F152
:107560000A01FFF70DFE02B0D0BDF0B503AF2DE963
:10757000000B0D46064604F0BBFE044604F0A9FECF
:1075800004F0BFFE3668306818B3012833D128688C
:1075900071680268914211D14068B16802680B6855
:1075A000934202BF42684B68934207D182688B685E
:1075B000934202BFC068C96881421FD04EF25A7020
:1075C0004EF26872C0F20200C0F202020E2104F014
:1075D0004BFF2968D1E90001096888478046306877
:1075E0008946012803D1D6E90101C96888470125E8
:1075F00086E8200303E00025356000E0012514F053
:10760000010008BF04F067FE2846BDE8000BF0BD8E
:10761000D0B502AF84B0044603F0A3FFCDE9010169
:1076200001A8039004F1200003A900F020FF68B92D
:1076300004F10800BFF35F8F50E8001F21F0010143
:1076400040E80012002AF7D1BFF35F8F04B0D0BD2D
:10765000B0B502AF84B0044603F083FF04F1200507
:10766000CDE9010101A803A90390284600F0A4FB7D
:1076700080B9284601F0CBF804F10800BFF35F8F12
:1076800050E8001F21F0010140E80012002AF7D164
:10769000BFF35F8F04B0B0BDF0B503AF2DE9000FAD
:1076A000AFB00268D2F80090D9F80020022A40F06A
:1076B0007F820122D9E901B8C9F8002002250A8891
:1076C000112A29D0502A40F05C82CA89002A40F051
:1076D0007A824A7BCDE903B8002A40F08482D0F850
:1076E00004800A8AB1F806A0D8F800000068B0F853
:1076F00000B0D3452CD105AD1231284600F0B2FFC1
:1077000029AC2946601C142206F0F6FE6ECC23A894
:107710006EC02178017022E0D0E902160020C1E994
:10772000000004F0E5FD044604F0D3FD04F0E9FD9B
:10773000D6E9002004F00104B168012A356004BFD5
:1077400049688847002C08BF04F0C5FD032518E2EE
:10775000002A00F011814088504540F00D8123AA95
:1077600005A9D34579CA8C46ACE8790010788CF825
:1077700000000DF1A40CD8F804E079C9624679C282
:10778000DDE903B80878107040F0FA810BAD0CF118
:1077900001011422CDF808E0284606F0ADFE11A83C
:1077A0000B9C04F0F2FB9DF84E0002284ED011AA6B
:1077B00016AB07CA07C340F21100C0F2000004F084
:1077C000F7FB16AE23A9ADF88C00304604F0BAFBE7
:1077D000304604F0B0FA48B140F2050023A9C0F2E7
:1077E00000008DF88C0016A804F025FB16A8214691
:1077F00004F0A6FAECB10BA816A9043004F0EBFBD8
:10780000012C16D09DF862500BA8C4F10008441D4D
:1078100016AE4FF0010A204631468DF862A004F002
:10782000DAFB08F10108013418F101008DF862500B
:10783000F1D116A804F070FB16AA23AB07CA07C340
:1078400023A804F0A7FBDDF810800BAD0B990029ED
:1078500000F09F819DF83000022800F09080012800
:1078600040F08E810020002503F08AFA04460020B3
:1078700003F086FA014620463DDF002003F080FA3F
:107880000446B12003F07CFA014620463CDF0DF1AE
:10789000580E0DF18C08029803224346D0E90010DF
:1078A000CDE91955CDE91755169201228DF85E20C4
:1078B0004FF49072D1F800C0ADF85C209EE87600DD
:1078C00076C308F10402BCF80010239B02F0BFF954
:1078D000022827D0CDE91D0120A804F056FB9DF811
:1078E0008A0002281ED020AA11AB07CA07C340F2A3
:1078F0001200C0F2000004F05BFB11AC23A9ADF84C
:107900008C00204604F01EFB1DA8214602F022FB3D
:10791000204604F001FB11AA23AB07CA07C323A822
:1079200004F038FB4BF20040C0F2C44004F0D5FC38
:1079300020A804F02AFB9DF88A0002281AD020AA69
:1079400011AB07CA07C340F21300C0F2000004F0F5
:107950002FFB11AC23A9ADF88C00204604F0F2FAFD
:10796000204604F0D9FA11AA23AB07CA07C323A8FB
:1079700004F010FB00F00BFADDE903B800E1112080
:1079800001298DF8400040F20C819DF83140A01C87
:10799000884200F24E81AE1D0DF18C082246404611
:1079A000314605F006FE2398012800F048810DF1CC
:1079B000440BDDE9245A584604F0E7FA9DF84E00DE
:1079C00002281ED011AA16AB07CA07C340F2140042
:1079D000C0F2000004F0ECFAADF88C0016A823A960
:1079E00004F0B0FA16AA2846514604F066FB16A821
:1079F00004F092FA16AA23AB07CA07C323A804F01F
:107A0000C9FA204603F0BDF9024610A831467CDFD2
:107A100002990020CDE91400CDE912000320D1F82D
:107A200000A0119002208DF84A004FF40870DAF897
:107A30000040ADF8480040469BE86E006EC002F082
:107A4000F2FD08F1040B2188239B5A4602F0DEF870
:107A5000022827D0CDE91D0120A804F096FA9DF850
:107A60008A0002281ED020AA16AB07CA07C340F21C
:107A70001500C0F2000004F09BFA16AC23A9ADF883
:107A80008C00204604F05EFA1DA8214602F029FA77
:107A9000204604F041FA16AA23AB07CA07C323A85D
:107AA00004F078FA00200221CDE91900CDE9170091
:107AB000032016900298DAF800C040688DF85E1036
:107AC0004FF40871ADF85C1016A991E87C0088E8C5
:107AD0007C005A46BCF80010239B02F0B8F802283C
:107AE00002D1DDE903B829E0CDE91B011DA804F0AE
:107AF0004CFA9DF87E00DDE903B802281ED01DAACD
:107B000020AB07CA07C340F21600C0F2000004F021
:107B10004FFA20AC23A9ADF88C00204604F012FAED
:107B20001BA8214602F016FA204604F0F5F920AA17
:107B300023AB07CA07C323A804F02CFA1DA804F03E
:107B400024FA9DF87E0002281AD01DAA20AB07CA8D
:107B500007C340F21700C0F2000004F029FA20AC7D
:107B600023A9ADF88C00204604F0ECF9204604F07F
:107B7000D3F920AA23AB07CA07C323A804F00AFA43
:107B80000225C9E9005BC9F808802FB0BDE8000FE5
:107B9000F0BD4EF6C0220020C0F20202002104F027
:107BA0007BFC4EF6D0220120C0F2020204F074FCED
:107BB0004EF6E8104EF61022C0F20200C0F20202A9
:107BC000282104F051FC05A804F0DFF99DF81E00FF
:107BD00002282CD005AA23AB07CA07C340F2330002
:107BE000C0F200000EE005A804F0CFF99DF81E00D9
:107BF00002281CD005AA23AB07CA07C340F23400F1
:107C0000C0F2000004F0D4F923AC29A9ADF8A40017
:107C1000204604F097F9204604F07EF9259A23982F
:107C200024992B922A91299029A804F0B3F904F001
:107C3000C0F94EF6E022C0F2020205F078FCDDE960
:107C400024014EF68023CDE916014EF6F020C0F255
:107C5000020016AA00904EF65420C0F20200C0F2B4
:107C600002032B2104F04CFCF0B503AF2DE9000F0B
:107C70008BB08346006801240E46DBF80450D0F830
:107C800000A0CAF800400988102928D000201B292C
:107C900045D0262950D002A804F077F99DF81200AB
:107CA00002281AD002AA05AB07CA07C340F2260071
:107CB000C0F2000004F07CF905AC08A9ADF8200082
:107CC000204604F03FF9204604F026F905AA08AB47
:107CD00007CA07C308A804F05DF904F06AF9F07B4D
:107CE000B6F8048002F0B0F9B17B8146B289B06881
:107CF00042EA014102F0E1F902460B46D6E90401ED
:107D0000CDE900014046494601F021FCC00707D1FA
:107D10000E4640460021002402F097FF0CE00BE0E5
:107D2000404603F02EF80646132003F02CF80146D7
:107D3000304676DF01240120686003206E702C70CD
:107D4000DBF80C50CAF8000004F0D2FA044604F044
:107D5000C0FA04F0D6FAD5E900300222A96804F08E
:107D60000104012B2A6004BF4968884734B90BB06D
:107D7000BDE8000FBDE8F04004F0ADBA0BB0BDE8BF
:107D8000000FF0BDFFF788BCFFF76EBF704780B5EE
:107D90006F4604F0A8FA4EF60C500422CEF2000012
:107DA000C0F2FA52016801F4A0611143016004F0CD
:107DB0009AFA04F09BFAFCE7F0B503AF2DE9000F47
:107DC000ADB08246007E019188B1032841D19AF876
:107DD00088000AF11C09002800F0C181032840F046
:107DE0008C80A7F1BF08A7F147000390ECE1DAF817
:107DF0000000CAF8040023A804F0C7F89DF8960014
:107E000002281AD023AA28AB07CA07C340F21900D8
:107E1000C0F2000004F0CCF828AC05A9ADF81400BD
:107E2000204604F08FF8204604F076F828AA05AB27
:107E300007CA07C305A804F0ADF8DAF80400FFF795
:107E400069FB020430D1000CAAF81610AAF814003D
:107E50005BE1D3461BF8810FABF1650800286DD0BC
:107E6000032855D1564616F87C0FD0B10328CDF81B
:107E70000C8058D1D8461FA8D34602901BF8780F23
:107E8000002800F0CC80032800F0E9804EF60000C6
:107E90004EF68C12C0F20200C0F20202232104F05E
:107EA000E3FA1FA8029081E023A81F9104F06DF867
:107EB0009DF8960002281ED023AA28AB07CA07C344
:107EC00040F21A00C0F2000004F072F828AC05A9D4
:107ED000ADF81400204604F035F81FA8214601F043
:107EE000A3FF204604F018F828AA05AB07CA07C369
:107EF00005A804F04FF804F05CF84EF600004EF6CA
:107F00009C22C0F20200C0F20202232104F0ACFA6B
:107F10004EF600004EF60032C0F20200C0F202023D
:107F2000232104F0A1FA4EF600004EF61012C0F222
:107F30000200C0F20202232104F096FA1FA8029068
:107F40009AF88000454605F8660F1FA8D8F800107B
:107F5000544644F8201F04F018F89DF886000228C3
:107F60001AD01FAA23AB07CA07C340F21000C0F201
:107F7000000004F01DF823AE28A9ADF8A00030469B
:107F800003F0E0FF304603F0C7FF23AA28AB07CA7F
:107F900007C328A803F0FEFF0020564606F87C0F12
:107FA00056F85C0C46E9144546E91650DAF8280004
:107FB000554645F8340F55E9021255F8100CA946FC
:107FC000AA6049F8041F0078142880F028824FF630
:107FD0002C011A22C2F2000110FB021001F0F8F984
:107FE00000040BD001F010FE05460120032D307077
:107FF00000F002820C46022D58D17FE00846CDF8F1
:108000000C80D84601F0FAFE044600F04AFF00203A
:10801000D3460BF8780FABF1380080E830025346B6
:10802000514653F8400F002541F8603FA1F11C0470
:108030000A4642F8145DA1F10805C1E90323C1E92C
:1080400001450368002B40F0F1814EF69C13022598
:10805000C0F20203C0E900518360CAF8742001999C
:108060000AF17400FFF781FA002840F0BF81DAF8C6
:1080700070000021CAF87010DAE9165400281CBFFD
:1080800000680160DAF84C00012803D1DAE9140134
:10809000C96888470120032D8BF8000000F0A981F2
:1080A000C346DDF80C803070022D27D00298CDE950
:1080B0001D5403F06AFF9DF8860002281ED01FAAF7
:1080C00023AB07CA07C340F21800C0F2000003F058
:1080D0006FFF23AC28A9ADF8A000204603F032FFC3
:1080E0001DA8214601F0C4FE204603F015FF23AA77
:1080F00028AB07CA07C328A803F04CFF08F16600A5
:1081000001F0AEF901208BF8000023A803F03DFF39
:108110009DF8960002281AD023AA28AB07CA07C3E5
:1081200040F21B00C0F2000003F042FF28AC05A99A
:10813000ADF81400204603F005FF204603F0ECFEE6
:1081400028AA05AB07CA07C305A803F023FFDAF87E
:108150000400D14649F81C0F002089F86C00A7F1F3
:108160004700039005A8A7F1BF08D9F8004000F028
:10817000AAFD4FF42870554645F8200F0022BDF89F
:108180001F0005AEA5F80B0004202C904EF259609C
:10819000C0F20200BDF81C102B9011202A904EF660
:1081A000AC20C0F20200AA72CDE928203046AA8095
:1081B00028AA298121462B4600F073FD05F1100005
:1081C0003146582206F09AF99AF88400CDF80090CA
:1081D000CDF80880C0B1032840F0338154460DF13A
:1081E000A00814F8800F23AEA4F1340598B3032837
:1081F0004ED04EF600004EF62022C0F20200C0F231
:108200000202232104F030F90120D3460BF8850F38
:1082100028A9ABF1510C5BF83D8C0A469CE879002B
:1082200079C223AE304600F00DFC3046414600F0E6
:1082300040FC032871D100F034FE4FF21C7055460B
:10824000C2F200000DF1A00845F84C0F002023AE4B
:108250002C4604F8340F0022514641F8502F01F10A
:108260000C022868C1E907250A46C1E9091542F848
:10827000185F0368002B40F0EF804EF6302C02238D
:10828000C0F2020CC0E90032C0F808C0CAF87C1085
:1082900001990AF17C00FFF768F9002840F0B180ED
:1082A000B5F81100E97C9AF85CB088F8021000215A
:1082B000A8F80000DAF87800CAF87810DAE9185956
:1082C00000281CBF00680160DAF85000012803D1C3
:1082D000DAE91501C96888470120B8F80010207054
:1082E000BBF1020F98F80200B070318000F08B8073
:1082F000B0788DF8760000208DF8A00028A831888D
:10830000ADF8741000F046FABDF874009DF87610D0
:10831000ADF87C008DF87E1006E00546584689468B
:1083200000F038FA4FF0010B039ABBF1010FBDF8D2
:108330007C009DF87E1010804FF00100029B917030
:108340008AF88400118892789A7019808AF88800D7
:108350008AF808B018889978AAF809008AF80B10EA
:10836000CAE903592CD1002D3FF4CFAE23A8CDE9A3
:108370001F5903F00AFE9DF8960002283FF4C5AE8F
:1083800023AA28AB07CA07C340F21C00C0F20000B2
:1083900003F00EFE28AC05A9ADF81400204603F04A
:1083A000D1FD1FA8214600F097FC204603F0B4FD44
:1083B00028AA05AB07CA07C305A803F0EBFDA4E68E
:1083C000DDF800B00AF114009AF8094005A960220E
:1083D0004BF8650B0AF1200006F090F800208AF8AF
:1083E00080408AF881000AF11C08A7E503208BF879
:1083F00000000320C346307003208BF800000420E7
:1084000006E00320207003208AF884008AF88800A0
:108410008AF8180001202DB0BDE8000FF0BD4EF223
:10842000E0621421C0F2020204F036F84EF6B010F9
:108430004EF6D812C0F20200C0F20202252104F06A
:1084400013F84EF600004EF69002C0F20200C0F2A1
:108450000202232104F008F84EF6B0104EF6442232
:10846000C0F20200C0F20202252103F0FDFFF0B5C8
:1084700003AF2DE90007B0B08046007D894660B1AA
:10848000032822D198F81000B0B1032828D198F819
:108490000C0008F1080A70BB65E0D8F800106846C7
:1084A00002F0C7F89DE80F0008F1040C8CE80F00FB
:1084B00098F810000028E8D102F01BFAC8E9020180
:1084C000C8B208F1080AB0B94DE04EF600004EF609
:1084D0001032C0F20200C0F20202232103F0C4FFF6
:1084E0004EF600004EF2E472C0F20200C0F2020248
:1084F000232103F0B9FF50464946FFF736F800281C
:1085000038D10020049004A84BDF00F0DFFC48B90C
:1085100004AC049802F06AF920464BDF00F0D6FC68
:108520000028F6D0052931D1802605A827F8426C0D
:10853000A7F1420161DF00F0C9FC70B905ACA7F1F9
:108540004205204600F008FC27F8426C20462946E8
:1085500061DF00F0BBFC0028F3D005291CBF43F20B
:108560000100814238D14FF64840C2F20000CAF8FB
:108570000000C0E7032088F8140088F8100088F88D
:108580000C00012030B0BDE80007F0BD2AA82791FB
:1085900003F0FBFC9DF8B200022861D02AAA2DABA3
:1085A00007CA07C340F24D00C0F2000003F000FD0F
:1085B0002DAC05A9ADF81400204603F0C3FC27A894
:1085C000214600F08DFC204603F0A6FC2DAA05AB49
:1085D00007CA07C305A841E0042918D127A803F05A
:1085E000D4FC9DF8A60002283AD027AA2AAB07CAD5
:1085F00007C340F24E00C0F2000003F0D9FC2AACE1
:108600002DA9ADF8B400204603F09CFC1CE027A87F
:10861000269103F0BAFC9DF8A600022820D027AAD4
:108620002AAB07CA07C340F24F00C0F2000003F0B4
:10863000BFFC2AAC2DA9ADF8B400204603F082FCA3
:1086400026A8214600F04CFC204603F065FC2C9A3D
:108650002A982B992F922E912D902DA803F09AFCF9
:1086600003F0A7FCF0B503AF2DE9000B92B0002397
:10867000102A1093CDE90E33CDE90C3362D8002ACD
:108680004DD0531E02F0030C032B01D2002528E02D
:1086900022F003030CAC5B4204F1040E002511F838
:1086A000044B04330EF805400C9C11F8036C04F1E4
:1086B00001040C9411F8028C0EF804600C9C11F863
:1086C000019C04F101040C940EF804800C9C04F14C
:1086D00001040C940EF804900C9C04F101050C9517
:1086E000DDD1BCF1000F1AD00CAB0E781D44BCF1EB
:1086F000010F2E710C9E06F101040C940FD01D1970
:108700004E78BCF1020F2E710C9E06F101040C9400
:1087100005D02344897819710C9901310C910DF120
:10872000300C0DF1040E102A9CE87801714681E8A6
:1087300078019FBF9EE86E006EC012B0BDE8000BCE
:1087400098BFF0BD06A803F020FC9DF82200022887
:108750001ED006AA09AB07CA07C340F22700C0F221
:10876000000003F025FC09AC0CA9ADF83000204650
:1087700003F0E8FB11A8214603F02FFD204603F08B
:10878000CBFB09AA0CAB07CA07C30CA803F002FC79
:1087900003F00FFCD0B502AF8AB00178002202705E
:1087A000C80732D04FF2B850C2F20000007802F091
:1087B000EAFA74DF00F08AFB012826D101A80091B3
:1087C00003F0E3FB9DF80E0002281ED001AA04ABC3
:1087D00007CA07C340F22500C0F2000003F0E8FB1F
:1087E00004AC07A9ADF81C00204603F0ABFB6846BB
:1087F000214600F075FB204603F08EFB04AA07AB70
:1088000007CA07C307A803F0C5FB0AB0D0BDD0B59F
:1088100002AF0446007E04280AD0032807D194F84A
:108820008800032804BF94F8840003281AD0D0BD20
:1088300094F8810080B1032818BFD0BD94F87C0063
:10884000032804BF94F87800032823D004F18200A1
:10885000BDE8D04000F004BE04F18000BDE8D04087
:1088600000F0FEBD94F8800003280DD1A06F002118
:10887000A16700281CBF00680160206D012803D19A
:10888000D4E91501C968884704F18500BDE8D040E6
:10889000FFF780BF206F0021216700281CBF006800
:1088A0000160E06C0128D1D1D4E91401C96888477E
:1088B00004F18200BDE8D04000F0D2BD7047F0B5B1
:1088C00003AF2DE9000F81B04FF2885A9346C2F2F0
:1088D000000A8946DAF82C00022842D1BBF1000FC9
:1088E00042D040F2FF351CE0DAF81C00C1F5806888
:1088F00008444946424605F0FFFDDAF81C0009EB42
:108900000801A6EB080205F0F7FDB144ABEB060B3E
:10891000BFF35F8F6FF39F24CAF82440BBF1000FB1
:1089200022D0DAF82800DAF82410BFF35F8F8842EB
:1089300003D9CA4386183EB9F0E7002814BFC1F531
:1089400080666E1A002EE9D05E4528BF5E46741818
:10895000B4F5806FC8D8DAF81C003246084449469E
:10896000D1E7BBF1000F1DD101B0BDE8000FF0BD94
:10897000DAF81C00C1F58065084449462A4605F02E
:10898000BBFDDAF81C0009EB0501721B05F0B4FD14
:10899000B144BBEB060BBFF35F8F6FF39F24CAF8A4
:1089A0002440E1D0DAF824105E46BBF5806F28BF82
:1089B0004FF480667418BFF35F8FB4F5806FD7D81B
:1089C000DAF81C00324608444946DFE7D0B502AF6A
:1089D000044600F022FA4FF21871C2F200010A7840
:1089E000120608D000F03EFA0020C4E90000A060A2
:1089F0000220A072D0BD01220A704EF620324870CB
:108A00004EF62031C0F20201C0F20202204603F00D
:108A100086F9D0BD80B56F4684B0D0E90012806879
:108A2000039001A8CDE9011203F081F94FF218700B
:108A30000021C2F200000170407804B0BDE880401F
:108A400000F010BA80B56F460A68DFE802F0030E46
:108A500014202600D1E901C2D1E903E30121C0E9D4
:108A600000C2C0E902E3017480BDD1E901E34FF027
:108A7000000C032104E0D1E901E34FF0000C0221D6
:108A80000022C0E900C2C0E902E3017480BDD1E95F
:108A900001C24FF0000E062104E0D1E901C24FF0FF
:108AA000000E07210023C0E900C2C0E902E30174FF
:108AB00080BDF0B503AF4DF8048D94B0CA888E46E2
:108AC0008B880E7B012AD1F800C04FF00001047C96
:108AD000BEF8085000918DF800400591CDE90311D2
:108AE000ADF815504FF001059EF80B400191CDF8FF
:108AF00008C098BF2A46002B08BF1A46ADF80C20C4
:108B0000012E88BF3546002C08BF254602688DF827
:108B10000E50002A1EBF41684FF6FE73994206D8D8
:108B2000836863B3C0684FF6FE76B04228D90BA8BD
:108B300003F02BFA9DF8360002281ED00D9A0B98F0
:108B40000C9910920F910E9040F22100C0F200009B
:108B500003F02EFA0EAC11A9ADF84400204603F044
:108B6000F1F9204603F0D8F9109A0E980F99139254
:108B70001291119011A803F00DFA03F01AFA0020D7
:108B80004FF2B858ADF81C10C2F20008ADF824003E
:108B9000069206A908936A46404672DF98B100F033
:108BA000C3FB04460A900BA803F0EFF99DF83600CA
:108BB000022869D00BAA0EAB07CA07C340F22200F5
:108BC000C0F2000046E001209EF80A5098F80060CC
:108BD00002F0D9F80446304602F0D3F8064628469B
:108BE00002F0D3F802463146204677DF98B100F014
:108BF0009BFB04460A900BA803F0C7F99DF83600CA
:108C0000022841D00BAA0EAB07CA07C340F22300CB
:108C1000C0F200001EE098F8000002F0B4F804462C
:108C2000012002F0B0F80146204673DF90B300F057
:108C30007BFB04460A900BA803F0A7F99DF83600C9
:108C4000022821D00BAA0EAB07CA07C340F22400AA
:108C5000C0F2000003F0ACF90EAC11A9ADF844006D
:108C6000204603F06FF90AA8214600F039F92046A2
:108C700003F052F9109A0E980F99139212911190D5
:108C800011A803F087F90A9C0220214614B05DF870
:108C9000048BF0BD00240320214614B05DF8048B42
:108CA000F0BDF0B503AF4DF8048D92E8704100F1CE
:108CB000040C00228CE8704180F85420836101602C
:108CC0005DF8048BF0BD40F20111816000218180CC
:108CD0004FF4C87101607047F0B503AF4DF804BDA3
:108CE00082B0054608460C4603F025F860B140F214
:108CF0002000C0F2000003F05BF9A7F1120127F891
:108D0000120C204603F0B7F8286830B101280FD1C3
:108D10004EF63731C0F2020103E04EF63831C0F2B0
:108D20000201204603F087F802B05DF804BBF0BDF5
:108D30004EF636312046C0F2020103F07CF80020E6
:108D4000A67AA072281D214600F0CAF8A67202B0C9
:108D50005DF804BBF0BDD4D480B56F4601460088F1
:108D6000421E0F2A38BF80BDA0F11002202A04D273
:108D70000846BDE8804001F003BEA0F13002202A81
:108D80001CD2888814282BD24EF60452CEF2000250
:108D9000127862BB4FF2287C00EB4000C2F2000C5C
:108DA0005CF82030DFE803F01B2E021B0CEB800286
:108DB000D2E901021269BDE880401047A0F15002DB
:108DC000202A04D20846BDE8804000F07FBF7038FA
:108DD000202804D20846BDE8804001F02FBC80BDA9
:108DE0004EF6A8321421C0F2020203F055FB4EF6F3
:108DF000B8304EF64842C0F20200C0F2020226210C
:108E000003F032FB4EF658404EF67C42C0F20200B0
:108E1000C0F20202222103F027FB80B56F464FF615
:108E20001801C2F200010878BFF35F8F020614D167
:108E30004EF2801CEFF31082012372B60B70CEF25B
:108E4000000CDCF800304B6040F2FC61CFF6FF51C3
:108E5000CCF80010D10700D162B6C0B2002818BF0C
:108E6000012080BD80B56F46000600D080BD4FF662
:108E70001801EFF310800022C2F2000172B60A70EE
:108E800040F2FC624968CFF6FF52C00701EA0201D6
:108E90004EF20012CEF20002116018BF80BD62B621
:108EA00080BD80B56F464EF60450CEF200000078CB
:108EB000002808BF80BD4EF6B8304EF64842C0F2DA
:108EC0000200C0F20202262103F0CEFA30B180B5D2
:108ED0006F4600F029FA0146012080BD002070474E
:108EE000B0B502AF82B0054608460C4602F023FF3B
:108EF00060B140F22800C0F2000003F059F8A7F179
:108F00000A0127F80A0C204602F0B5FF2868B0F5E0
:108F1000005F1ADBB0F5405F41DDB0F5485FC0F29D
:108F20005580B0F54C5F80F26580A0F54850DFE8D1
:108F300000F0038089929BA44EF69441C0F2020196
:108F4000204602F078FF02B0B0BDB0F5805F80F23D
:108F5000608001304EF6BC41C0F20201DFE810F043
:108F60001600150096009F00A800B100BA00C300CB
:108F7000CC00D500DE00E700F000F90002010B0193
:108F800014011D0126012F013801D9E74EF6BB411E
:108F9000C0F20201204602F04EFF02B0B0BDA0F5C3
:108FA0000050DFE810F00A001E01270130013901EE
:108FB00042014B0154015D0166014EF6A441C0F22D
:108FC0000201204602F037FF02B0B0BD43F20101BA
:108FD000401ADFE810F006005701600169017201D4
:108FE0007B014EF69A41C0F20201204602F023FFB7
:108FF00002B0B0BD00F07381B0F5505F40F07881F1
:109000004EF68D41C0F20201204602F014FF02B07C
:10901000B0BD00F0768141F20101884240F07A81D2
:109020004EF6A641C0F20201204602F004FF02B053
:10903000B0BD4EF69341C0F20201204602F0FBFEA5
:1090400002B0B0BD4EF69241C0F20201204602F0DD
:10905000F2FE02B0B0BD4EF69141C0F202012046D0
:1090600002F0E9FE02B0B0BD4EF69041C0F202013E
:10907000204602F0E0FE02B0B0BD4EF68F41C0F2D5
:109080000201204602F0D7FE02B0B0BD4EF6BA4152
:10909000C0F20201204602F0CEFE02B0B0BD4EF694
:1090A000B941C0F20201204602F0C5FE02B0B0BDD7
:1090B0004EF6B841C0F20201204602F0BCFE02B0FA
:1090C000B0BD4EF6B741C0F20201204602F0B3FE39
:1090D00002B0B0BD4EF6B641C0F20201204602F029
:1090E000AAFE02B0B0BD4EF6B541C0F20201204664
:1090F00002F0A1FE02B0B0BD4EF6B441C0F20201D2
:10910000204602F098FE02B0B0BD4EF6B341C0F268
:109110000201204602F08FFE02B0B0BD4EF6B24111
:10912000C0F20201204602F086FE02B0B0BD4EF64B
:10913000B141C0F20201204602F07DFE02B0B0BD96
:109140004EF6B041C0F20201204602F074FE02B0B9
:10915000B0BD4EF6AF41C0F20201204602F06BFEF8
:1091600002B0B0BD4EF6AE41C0F20201204602F0A0
:1091700062FE02B0B0BD4EF6AD41C0F20201204623
:1091800002F059FE02B0B0BD4EF6AC41C0F2020191
:10919000204602F050FE02B0B0BD4EF6AB41C0F228
:1091A0000201204602F047FE02B0B0BD4EF6AA41D1
:1091B000C0F20201204602F03EFE02B0B0BD4EF603
:1091C000A941C0F20201204602F035FE02B0B0BD56
:1091D0004EF6A841C0F20201204602F02CFE02B079
:1091E000B0BD4EF6A341C0F20201204602F023FEBC
:1091F00002B0B0BD4EF6A241C0F20201204602F01C
:109200001AFE02B0B0BD4EF6A141C0F202012046E6
:1092100002F011FE02B0B0BD4EF6A041C0F2020154
:10922000204602F008FE02B0B0BD4EF69F41C0F2EB
:109230000201204602F0FFFD02B0B0BD4EF69E4195
:10924000C0F20201204602F0F6FD02B0B0BD4EF6BB
:109250009D41C0F20201204602F0EDFD02B0B0BD1A
:109260004EF69C41C0F20201204602F0E4FD02B03D
:10927000B0BD4EF69B41C0F20201204602F0DBFD7C
:1092800002B0B0BD4EF69941C0F20201204602F094
:10929000D2FD02B0B0BD4EF69841C0F202012046A8
:1092A00002F0C9FD02B0B0BD4EF69741C0F2020116
:1092B000204602F0C0FD02B0B0BD4EF69641C0F2AD
:1092C0000201204602F0B7FD02B0B0BD4EF6954156
:1092D000C0F20201204602F0AEFD02B0B0BD4EF673
:1092E0008E41C0F20201204602F0A5FD02B0B0BDE1
:1092F0004EF68C41C0F20201204602F09CFD02B005
:10930000B0BD4EF6A741C0F20201204602F093FD27
:1093100002B0B0BD4EF6A541C0F20201204602F0F7
:109320008AFD02B0B0BDD4D401464FF0FF30B1F594
:10933000005F13DBB1F5405F21DDB1F5485F29DB4C
:10934000B1F54C5F80F23880A1F54852052A88BFFC
:109350007047DFE802F0353535353535B1F5805FDA
:1093600022DA13292DD8DFE801F02B2B2B2B2B2B06
:109370002B2B2B2B2B2B2B2B2B2B2B2B2B2BA1F5FD
:109380000052092A1DD8DFE802F01B1B1B1B1B1B08
:109390001B1B1B1B43F201028A1A052A11D8DFE8A6
:1093A00002F00F0F0F0F0F0F1CBF41F2010291428D
:1093B00006D041F2020207E018BFB1F5505F01D1BB
:1093C0000846704743F20142914208BF0846704781
:1093D0000288418882F001007047B0B502AF8AB0C0
:1093E00004460088012804D1E07B28B100200AB09F
:1093F000B0BD01200AB0B0BD608801F0C2FC0546D6
:10940000132001F0C0FC0146284676DF20B9012078
:10941000E07300200AB0B0BD01A802F0B6FD9DF8CF
:109420000E0002281AD001AA04AB07CA07C340F2F3
:109430002A00C0F2000002F0BBFD04AC07A9ADF8A1
:109440001C00204602F07EFD204602F065FD04AAC5
:1094500007AB07CA07C307A802F09CFD02F0A9FDED
:10946000D0B502AF8AB00078132843D84FF62C014C
:109470001A22C2F2000110FB0210014611F80E2F51
:10948000013AD3B293423CD10A70110604BF01885D
:10949000012901D00AB0D0BDFFF79FFF0028F9D005
:1094A00001A802F072FD9DF80E0002284DD001AA1D
:1094B00004AB07CA07C340F22E00C0F2000002F05E
:1094C00077FD04AC07A9ADF81C00204602F03AFD78
:1094D000204602F030FC58B140F22900C0F20000F2
:1094E00002F066FDADF81C0004A807A902F0C3FC59
:1094F00004A81FE04EF62C521421C0F2020202F022
:10950000CBFF01A802F041FD9DF80E0002281CD0FF
:1095100001AA04AB07CA07C340F22D00C0F2000045
:1095200002F046FD04AC07A9ADF81C00204602F08D
:1095300009FD204602F0F0FC069A0498059909926C
:109540000891079007A802F025FD02F032FDF0B562
:1095500003AF4DF8048D8AB04FF62C04C2F200041C
:1095600004F50275A54202D14FF0010EACE0A6460B
:109570001EF80E5F2DB92588012D02D04FF0000C8A
:1095800074E0254635F81ACFAE461EF80E6F2EB998
:10959000BCF1010F02D04FF0010C66E0254635F812
:1095A00034CFAE461EF80E6F2EB9BCF1010F02D0BB
:1095B0004FF0020C59E0254635F84ECFAE461EF866
:1095C0000E6F2EB9BCF1010F02D04FF0030C4CE02E
:1095D000254635F868CFAE461EF80E6F2EB9BCF1A1
:1095E000010F02D04FF0040C3FE0254635F882CF42
:1095F000AE461EF80E6F2EB9BCF1010F02D04FF02F
:10960000050C32E0254635F89CCFAE461EF80E6FAD
:109610002EB9BCF1010F02D04FF0060C25E0254613
:1096200035F8B6CFAE461EF80E6F2EB9BCF1010F5D
:1096300002D04FF0070C18E0254635F8D0CFAE46E3
:109640001EF80E6F2EB9BCF1010F02D04FF0080CBE
:109650000BE0254635F8EACFAE461EF80E6FCEBBBE
:10966000BCF1010F36D04FF0090C2C46D7E9026847
:109670001725A581012566601E0C608080B2C4F8A4
:10968000088014288EF8005021744FF01B012176B9
:109690004FF000012580E675A4F81530C4F81120BC
:1096A000E17325D24FF63421C2F2000111F81020E7
:1096B000002A40F0A58001224FF0000E01F8102092
:1096C00001EB400080F801C0704661460AB05DF8C9
:1096D000048BF0BD94F812618EB9B4F80461012EC8
:1096E0000DD004F5897E04F582744FF00A0CBDE7B5
:1096F0004EF63C521421C0F2020202F0CDFE94F864
:109700002C6156B9B4F81E61012E06D004F5967E80
:1097100004F58F744FF00B0CA8E794F8466156B926
:10972000B4F83861012E06D004F5A37E04F59C74CC
:109730004FF00C0C9AE794F8606156B9B4F8526196
:10974000012E06D004F5B07E04F5A9744FF00D0C7F
:109750008CE794F87A6156B9B4F86C61012E06D0A2
:1097600004F5BD7E04F5B6744FF00E0C7EE794F858
:10977000946156B9B4F88661012E06D004F5CA7E0C
:1097800004F5C3744FF00F0C70E794F8AE6156B94E
:10979000B4F8A061012E06D004F5D77E04F5D0748C
:1097A0004FF0100C62E794F8C86156B9B4F8BA618A
:1097B000012E06D004F5E47E04F5DD744FF0110CA3
:1097C00054E794F8E26156B9B4F8D461012E06D09A
:1097D00004F5F17E04F5EA744FF0120C46E794F8B4
:1097E000FC614FF0010E7EBBB4F8EE61012E3FF438
:1097F0006BAF04F5FE7E04F5F7744FF0130C35E7FC
:1098000001A802F0C2FB9DF80E0002281AD001AA9E
:1098100004AB07CA07C340F22F00C0F2000002F0F9
:10982000C7FB04AC07A9ADF81C00204602F08AFB78
:10983000204602F071FB04AA07AB07CA07C307A8BA
:1098400002F0A8FB02F0B5FB3EE7D4D4F0B503AFBD
:109850004DF804BD8AB080B2142880F074804FF6B1
:109860003422C2F2000212F81030DB0700F08480CC
:1098700002EB40004078132800F26C801A234FF668
:109880002C0600FB03F5C2F20006755B012D40F0CB
:10989000838010FB03635888142854D212F8106098
:1098A000F60700F089804EF60456002502F81050A5
:1098B000CEF200060C6831681D800A0651D100EB1B
:1098C00040054FF22870C2F2000050F82520DFE872
:1098D00002F00A99020A00EB8501D1E901010A6947
:1098E00021469047316808063BD14FF65C20C2F212
:1098F000000050F82520DFE802F00A85020A00EB9C
:109900008501D1E901010A692146904731680806BD
:1099100027D14FF65430C2F2000050F82510DFE88E
:1099200001F0027106020AB05DF804BBF0BD00EB65
:109930008501D1E901010A6921460AB05DF804BB3D
:10994000BDE8F04010474EF63C521421C0F202022E
:1099500002F0A2FD4EF62C521421C0F2020202F0D7
:109960009BFD4EF6B8304EF64842C0F20200C0F2FF
:109970000202262102F078FD01A802F006FB9DF804
:109980000E0002283CD001AA04AB07CA07C340F26C
:109990003000C0F200001EE001A802F0F6FA9DF8C7
:1099A0000E0002282CD001AA04AB07CA07C340F25C
:1099B0002B00C0F200000EE001A802F0E6FA9DF8CC
:1099C0000E0002281CD001AA04AB07CA07C340F24C
:1099D0002C00C0F2000002F0EBFA04AC07A9ADF8CD
:1099E0001C00204602F0AEFA204602F095FA069AD4
:1099F0000498059909920891079007A802F0CAFAFD
:109A000002F0D7FA4EF658404EF67C42C0F2020001
:109A1000C0F20202222102F027FDD0B502AF8AB0C7
:109A200080B214281FD24FF63422C2F2000212F87C
:109A30001030DB071ED002EB4000407814283FBFF7
:109A40004FF62C02C2F200021A2310FB03203FBF84
:109A5000097801760AB0D0BD4EF62C521421C0F21E
:109A6000020202F019FD4EF63C521421C0F202022D
:109A700002F012FD01A802F088FA9DF80E000228FB
:109A80001AD001AA04AB07CA07C340F23000C0F2E3
:109A9000000002F08DFA04AC07A9ADF81C002046C6
:109AA00002F050FA204602F037FA04AA07AB07CAC0
:109AB00007C307A802F06EFA02F07BFAD0B502AF36
:109AC0008AB080B2142822D24FF63422C2F20002A9
:109AD00012F81030DB0721D002EB40004078142848
:109AE0003FBF4FF62C02C2F200021A2310FB0320E4
:109AF0003FBF0A684968816042603CBF0AB0D0BD80
:109B00004EF62C521421C0F2020202F0C5FC4EF6B1
:109B10003C521421C0F2020202F0BEFC01A802F085
:109B200034FA9DF80E0002281AD001AA04AB07CA25
:109B300007C340F23000C0F2000002F039FA04AC72
:109B400007A9ADF81C00204602F0FCF9204602F0FF
:109B5000E3F904AA07AB07CA07C307A802F01AFA79
:109B600002F027FAD0B502AF8AB080B214281FD213
:109B70004FF63422C2F2000212F81030DB071ED07A
:109B800002EB4000407814283FBF4FF62C02C2F28F
:109B900000021A2310FB03203FBF098881810AB00D
:109BA000D0BD4EF62C521421C0F2020202F074FC19
:109BB0004EF63C521421C0F2020202F06DFC01A8E4
:109BC00002F0E3F99DF80E0002281AD001AA04ABB6
:109BD00007CA07C340F23000C0F2000002F0E8F903
:109BE00004AC07A9ADF81C00204602F0ABF92046F2
:109BF00002F092F904AA07AB07CA07C307A802F04C
:109C0000C9F902F0D6F9704700207047B0B502AF2D
:109C100082B000200C46ADF802004FF6FF700192B2
:109C2000ADF8003001F0ADF80546204601F0A9F886
:109C300001466A462846ACDF28B1FFF775FB0146AE
:109C4000012002B0B0BD0021022002B0B0BDB0B50D
:109C500002AF86B090F800C0BCF1140F2ED24FF0C6
:109C60001A0E4FF62C040CFB0EF0C2F20004255A1B
:109C70000020012D1CD11CFB0E45ADF80C0001206D
:109C800005928DF80A00A7F11A0227F81A3C0492EF
:109C9000B5F802C0ADF80810604601F072F802A9EC
:109CA000AEDF38B1FFF740FB0146012006B0B0BD82
:109CB00006B0B0BD0021022006B0B0BD4EF62C5259
:109CC0006046C0F20202142102F0E6FBF0B503AFD9
:109CD0004DF804BD8CB001460088552847D14FF699
:109CE0004E308C88C2F20000CD880088854288BF43
:109CF00005462046172D98BF172527F83A5C01F036
:109D000040F80646284601F03CF801463046B5DFEB
:109D100000284DD0FFF708FB029003A802F035F9A8
:109D20009DF8160002281ED003AA06AB07CA07C377
:109D300040F23700C0F2000002F03AF906AC09A97F
:109D4000ADF82400204602F0FDF802A82146FFF7F6
:109D5000C7F8204602F0E0F806AA09AB07CA07C315
:109D600009A802F017F90CB05DF804BBF0BD8888B3
:109D7000142826D24EF60452CEF2000212783ABBD4
:109D80004FF65C2200EB4000C2F2000252F8203095
:109D9000DFE803F002290302E5E702EB8002D2E9E3
:109DA000010212690CB05DF804BBBDE8F040104739
:109DB000A7F13A012046FFF7D5FE0CB05DF804BBD1
:109DC000F0BD4EF6BC521421C0F2020202F064FB58
:109DD0004EF6B8304EF64842C0F20200C0F202021F
:109DE000262102F041FB4EF658404EF67C42C0F26E
:109DF0000200C0F20202222102F036FB80B21328D8
:109E00009FBF00EB40004FF65C21C2F2000101EB66
:109E1000800098BF704780B56F464EF6BC52142143
:109E2000C0F2020202F038FBF0B503AF4DF804BDFA
:109E300082B0054608460C4601F07DFF60B140F255
:109E40003100C0F2000002F0B3F8A7F1120127F8C8
:109E5000120C204602F00FF80020A67AA0722846C5
:109E60002146FFF73DF8A67202B05DF804BBF0BDD5
:109E7000F0B503AF4DF804BD82B0054608460C4668
:109E800001F059FF60B140F23200C0F2000002F070
:109E90008FF8A7F1120127F8120C204601F0EBFF12
:109EA0002868012812D14EF6CC512046C0F202019A
:109EB00001F0C1FF0020A67AA072281D2146FFF7FD
:109EC0000FF8A67202B05DF804BBF0BD4EF6CD519E
:109ED0002046C0F2020101F0AEFF02B05DF804BB03
:109EE000F0BDF0B503AF4DF804BD82B0054608469D
:109EF0000C4601F020FF60B140F23500C0F20000D6
:109F000002F056F8A7F1120127F8120C204601F0D2
:109F1000B2FF2868012812D14EF6CC512046C0F27B
:109F2000020101F088FF0020A67AA072281D2146B8
:109F3000FEF7D6FFA67202B05DF804BBF0BD4EF688
:109F4000CD512046C0F2020101F075FF02B05DF86C
:109F500004BBF0BDF0B503AF4DF804BD82B00546BB
:109F600008460C4601F0E7FE60B140F23600C0F250
:109F7000000002F01DF8A7F1120127F8120C20468C
:109F800001F079FF2868012812D14EF6CC51204605
:109F9000C0F2020101F04FFF0020A67AA072281D36
:109FA0002146FEF79DFFA67202B05DF804BBF0BD2E
:109FB0004EF6CD512046C0F2020101F03CFF02B046
:109FC0005DF804BBF0BD01217047D0B502AF8CB085
:109FD0008646002007F8310CA7F13101704662DF98
:109FE000002801BF17F8311CBEF80C000CB0D0BD22
:109FF000FFF79AF9029003A801F0C7FF9DF8160039
:10A0000002281ED003AA06AB07CA07C340F23800D5
:10A01000C0F2000001F0CCFF06AC09A9ADF82400A5
:10A02000204601F08FFF02A82146FEF759FF204687
:10A0300001F072FF06AA09AB07CA07C309A801F01D
:10A04000A9FF01F0B6FF7047D0B502AF8AB007F89C
:10A050002D0CC0B201282DD0022802BF00200AB06A
:10A06000D0BD01A801F091FF9DF80E0002281FD07D
:10A0700001AA04AB07CA07C340F23900C0F20000CE
:10A0800001F096FF04AC07A9ADF81C00204601F0D2
:10A0900059FFA7F12D00214601F09DFF204601F058
:10A0A0003BFF04AA07AB07CA07C307A801F072FF6A
:10A0B00001F07FFF01200AB0D0BD704780B56F4628
:10A0C0008CB001288DE8070015D041F201018842CB
:10A0D0002BD103A8002A45D101F057FF9DF81600A7
:10A0E00002286AD003AA06AB07CA07C340F23B00A6
:10A0F000C0F200000EE003A801F047FF9DF8160033
:10A1000002285AD003AA06AB07CA07C340F23A0096
:10A11000C0F2000001F04CFF06AC09A9ADF8240024
:10A12000204601F00FFF01A838E003A801F02DFF41
:10A130009DF81600022840D003AA06AB07CA07C341
:10A1400040F23D00C0F2000001F032FF06AC09A968
:10A15000ADF82400204601F0F5FE6846214601F0E6
:10A1600088FF16E001F011FF9DF81600022824D0A8
:10A1700003AA06AB07CA07C340F23C00C0F20000C6
:10A1800001F016FF06AC09A9ADF82400204601F045
:10A19000D9FE01A8214601F06CFF02A8214601F07A
:10A1A00068FF204601F0B8FE089A069807990B92BE
:10A1B0000A91099009A801F0EDFE01F0FAFEB0B590
:10A1C00002AF8CB00C46019000F0DAFD05464FF26C
:10A1D0008850C2F2000000F0D3FD02462846214616
:10A1E00069DF18B1FFF7A0F8042801D10CB0B0BDA9
:10A1F000029003A801F0C9FE9DF81600022822D0A3
:10A2000003AA06AB07CA07C340F23E00C0F2000033
:10A2100001F0CEFE06AC09A9ADF82400204601F0FD
:10A2200091FE01A8214601F024FF02A82146FEF775
:10A2300057FE204601F070FE06AA09AB07CA07C305
:10A2400009A801F0A7FE01F0B4FEF0B503AF2DE9B7
:10A25000000B8CB04FF64C340546C2F20004D4E833
:10A260004F0F48B90120BFF35F8FC4E8410FC1B160
:10A27000D4E84F1F0029F8D003A8BFF32F8FBFF3F6
:10A280005F8F01F082FE9DF81600022800F06381C6
:10A2900003AA06AB07CA07C340F23F00C0F20000A2
:10A2A00044E1BFF35F8F002095F82C10012908BF0F
:10A2B00005F12D00002908BF08464AF2BD01C0F291
:10A2C000020110DF002840F04881AA6910044FF015
:10A2D000010005D0A98B120C89B242EA014201E0CB
:10A2E00003210122ADF8281009A98DF824002020AF
:10A2F0008DF82620FFF763FFE88B012809D1288C11
:10A3000009A9ADF8260001208DF824002320FFF7CD
:10A3100056FF95F8310050B195F8320009A98DF833
:10A32000260001208DF824002120FFF748FF95F832
:10A33000330050B195F8340009A98DF826000120AA
:10A340008DF824002220FFF73AFF688C01280CD1F9
:10A35000D5E90901CDF826000120CDF82A1009A978
:10A360008DF824002420FFF72AFF95F8350038B136
:10A3700095F8360009A98DF824000120FFF71FFF8A
:10A3800095F8370048B1A96B95F83C00099109A9E7
:10A390008DF828004020FFF712FF2868012807D118
:10A3A0002A1D09AB07CA07C309A94120FFF707FF08
:10A3B00095F83D0038B195F83E0009A98DF82400C4
:10A3C0004220FFF7FCFE95F83F0038B195F84000B9
:10A3D00009A98DF824004320FFF7F1FE95F841000C
:10A3E00030B195F8420009A90990A020FFF7E7FED7
:10A3F0002869012805D1686909A90990A120FFF7FA
:10A40000DEFE4FF2885901A8C2F20009CDF804908F
:10A4100060DF8046019800F16040029003A801F0DF
:10A42000B4FD9DF8160002281ED003AA06AB07CA89
:10A4300007C340F24100C0F2000001F0B9FD06AED2
:10A4400009A9ADF82400304601F07CFD02A8314690
:10A4500001F00FFE304601F05FFD06AA09AB07CA06
:10A4600007C309A801F096FDB8F1000F40F08880FD
:10A470000198484525D203A801F087FD9DF81600F4
:10A4800002281ED003AA06AB07CA07C340F2450044
:10A49000C0F2000001F08CFD06AE09A9ADF8240061
:10A4A000304601F04FFD01A8314601F0E2FD304693
:10A4B00001F032FD06AA09AB07CA07C309A801F0DB
:10A4C00069FD4EF20013D5F81E10CEF20003686A43
:10A4D0006A8C4FF480061E60A31D0126D3E84F5FEF
:10A4E0009DB9C3E8456F002DF8D1012A18BF172088
:10A4F0000A044FEA114108BF172124F8021F6080A7
:10A5000020460CB0BDE8000BF0BD03A8BFF32F8FB1
:10A5100001F03BFD9DF8160002281CD003AA06ABF3
:10A5200007CA07C340F25700C0F2000001F040FD27
:10A5300006AC09A9ADF82400204601F003FD204631
:10A5400001F0EAFC089A069807990B920A91099083
:10A5500009A801F01FFD01F02CFDFEF7E5FE0290B9
:10A5600003A801F012FD9DF816000228F3D003AAFB
:10A5700006AB07CA07C340F24000C0F2000034E057
:10A580004046FEF7D1FE04281FD1019848453AD92C
:10A5900003A801F0FAFC9DF816000228DBD003AAFC
:10A5A00006AB07CA07C340F24300C0F2000001F047
:10A5B000FFFC06AC09A9ADF82400204601F0C2FC5E
:10A5C00001A8214601F055FDB9E7029003A801F06A
:10A5D000DCFC9DF816000228BDD003AA06AB07CA12
:10A5E00007C340F24400C0F2000001F0E1FC06ACF9
:10A5F00009A9ADF82400204601F0A4FC02A82146D8
:10A60000FEF76EFC9BE703A801F0BFFC9DF8160067
:10A610000228A0D003AA06AB07CA07C340F2420033
:10A62000C0F2000082E74FF64C30C2F20000023068
:10A6300070470022016002737047D4D4D0B502AFD6
:10A640008AB00146008874282BD075284CD0772812
:10A6500035D18C68002C64D0888814284FD24EF6EF
:10A660000452CEF200021278002A4FD14FF6543C29
:10A6700000EB4000C2F2000C5CF82030DFE803F091
:10A6800008AB02080CEB8002D2E901021269904784
:10A690004FF64440C2F200000168002971D0204604
:10A6A00009E0886800284CD04FF64441C2F200010E
:10A6B0000968002955D00AB0BDE8D040084788880D
:10A6C00014281CD24EF60452CEF200021278EAB9D7
:10A6D0004FF6543200EB4000C2F2000252F8203034
:10A6E000DFE803F0027904020AB0D0BD02EB800279
:10A6F000D2E9010212690AB0BDE8D04010474EF617
:10A7000038621421C0F2020201F0C6FE4EF6B830E3
:10A710004EF64842C0F20200C0F20202262101F0C9
:10A72000A3FE684601F031FC9DF80A00022850D0D3
:10A730009DE8070003AB07C340F24800C0F20000E9
:10A740002EE0684601F021FC9DF80A00022840D066
:10A750009DE8070003AB07C340F24600C0F20000CB
:10A760001EE0684601F011FC9DF80A00022830D076
:10A770009DE8070003AB07C340F24700C0F20000AA
:10A780000EE0684601F001FC9DF80A00022820D086
:10A790009DE8070003AB07C340F24900C0F2000088
:10A7A00001F006FC03AC06A9ADF81800204601F044
:10A7B000C9FB09A8214601F025FD204601F0ACFBAC
:10A7C000059A0398049908920791069006A801F04B
:10A7D000E1FB01F0EEFB4EF658404EF67C42C0F233
:10A7E0000200C0F20202222101F03EFEB0B502AF2B
:10A7F0008CB00B28019054D80446029003A801F0B5
:10A80000C4FB9DF8160002281ED003AA06AB07CA97
:10A8100007C340F24C00C0F2000001F0C9FB06ADD6
:10A8200009A9ADF82400284601F08CFB02A82946AE
:10A8300000F062F8284601F06FFB06AA09AB07CAD0
:10A8400007C309A801F0A6FB032C0CD0022C26D1CB
:10A8500001F04EFD044601F03CFD01F052FD4FF6C3
:10A860002002032009E001F043FD044601F031FD20
:10A8700001F047FD4FF620020020C2F200021378DB
:10A88000507002255068012B916804F00104157086
:10A8900004BF49688847002C08BF01F01CFD0CB0BC
:10A8A000B0BD03A801F071FB9DF8160002281ED070
:10A8B00003AA06AB07CA07C340F24B00C0F2000070
:10A8C00001F076FB06AC09A9ADF82400204601F0A2
:10A8D00039FB01A8214601F0CCFB204601F01CFB0E
:10A8E00006AA09AB07CA07C309A801F053FB01F088
:10A8F00060FB002000217047B0B502AF82B0054672
:10A9000008460C4601F017FA60B140F24A00C0F266
:10A91000000001F04DFBA7F10A0127F80A0C2046C0
:10A9200001F0A9FA28684EF65461C0F2020151F80C
:10A930002010204601F07FFA02B0B0BDD0B502AFC2
:10A9400001F0D6FC044601F0C4FC01F0DAFC4FF63D
:10A9500048434FF0020CC2F2000304F00104D3E9B3
:10A9600000209968012AC3F800C004BF49688847DD
:10A97000002C18BFD0BDBDE8D04001F0ACBCD4D491
:10A98000D0B502AF90B00446008801941038162864
:10A9900000F21281DFE810F01700300036001001DD
:10A9A0001001100110011001100110011001A90087
:10A9B0001001C0001001400010016A001001A20047
:10A9C000D0001001DA00E07BFFF73EFB4EF60451A9
:10A9D0000028CEF20001096800F0C880080640F0A7
:10A9E000F5804FF21C71C2F200010868DFE810F038
:10A9F000C900F900E600C900A08801A9FEF726FFFA
:10AA000010B0D0BDD4E90212A088CDE90C120CA977
:10AA1000FFF754F810B0D0BDA088D4E90212CDE9F8
:10AA2000021200F0AEF902A975DF002800F0C48020
:10AA3000FEF77AFC059006A801F0A7FA9DF822001F
:10AA4000022800F0B98006AA09AB07CA07C340F282
:10AA50005000C0F2000001F0ABFA09AC0CA9ADF84F
:10AA60003000204601F06EFA05A827E0A088218971
:10AA7000ADF8141000F085F905A98FDF002800F06B
:10AA80009B80FEF751FC029006A801F07EFA9DF82B
:10AA90002200022800F0908006AA09AB07CA07C36B
:10AAA00040F25200C0F2000001F082FA09AC0CA999
:10AAB000ADF83000204601F045FA02A82146FEF725
:10AAC0000FFA204601F028FA0B9A09980A990E927B
:10AAD0000D910C900CA801F05DFA6DE0A0880021AA
:10AAE00010B0BDE8D04000F0B0B8207A012854D0B2
:10AAF000022840F081804EF60450CEF2000000782B
:10AB0000002840F063804FF65441C2F2000108680B
:10AB1000DFE800F0526754524EF60450CEF20000C7
:10AB20000078002852D14FF66041C2F20001086857
:10AB3000DFE800F042574442D4E90212A088CDE990
:10AB40000C120CA9FEF769FF10B0D0BD4EF60450F0
:10AB5000CEF200000078002838D14FF21C71C2F20A
:10AB600000010868DFE800F0283D2A2808062DD1FA
:10AB70004FF65441C2F200010868DFE800F00232EB
:10AB80001F02A08800F0FDF80446132000F0FBF837
:10AB90000146204676DF10B0D0BD4EF60450CEF20E
:10ABA0000000007890B94FF66041C2F200010868D9
:10ABB000DFE800F00217040210B0D0BD48688968D1
:10ABC0000A69214610B0BDE8D04010474EF6B830B3
:10ABD0004EF64842C0F20200C0F20202262101F005
:10ABE00043FC4EF658404EF67C42C0F20200C0F2E2
:10ABF0000202222101F038FC029006A801F0C5F9FA
:10AC00009DF8220002281ED006AA09AB07CA07C376
:10AC100040F25100C0F2000001F0CAF909AC0CA9E1
:10AC2000ADF83000204601F08DF902A8214601F070
:10AC300020FA204601F070F909AA0CAB07CA07C335
:10AC40000CA801F0A7F901F0B4F9F0B503AF4DF885
:10AC500004BD8CB00D460021ADF80410009100F049
:10AC600090F86C462946224690DF002800F0848048
:10AC7000FEF75AFB029003A801F087F99DF8160031
:10AC800002281ED003AA06AB07CA07C340F253002E
:10AC9000C0F2000001F08CF906AD09A9ADF824005E
:10ACA000284601F04FF902A82946FEF719F928466F
:10ACB00001F032F906AA09AB07CA07C309A801F0D7
:10ACC00069F9BDF80000BDF8021008432AD003A8B6
:10ACD00001F05BF99DF81600022823D003AA06AB09
:10ACE000A51C07CA07C340F25400C0F2000001F0DF
:10ACF0005FF906AE09A9ADF82400304601F022F94B
:10AD00006846314601F090F92846314601F08CF949
:10AD1000304601F001F906AA09AB07CA07C309A822
:10AD200001F038F9BDF8040030B303A801F02DF9A3
:10AD30009DF8160002281FD003AA06AB043407CAE8
:10AD400007C340F25500C0F2000001F031F906AD32
:10AD500009A9ADF82400284601F0F4F82046294658
:10AD600001F062F9284601F0D7F806AA09AB07CA34
:10AD700007C309A801F00EF90CB05DF804BBF0BDE3
:10AD8000704780B27047C0B2704740B27047002031
:10AD900070474FF2C05041F20451C2F20000C4F2B9
:10ADA0000101006B096800F0010281EAC251420A08
:10ADB00011EBC05042F100017047D0B502AF4FF225
:10ADC000C05CC2F2000C9CF83430BFF35F8FD9B284
:10ADD00003294FF0000438BF012402296BD80CF17D
:10ADE0003402D2E84F0F884207D1591CBFF35F8F5E
:10ADF000C2E8431F1BB9012302E0BFF32F8F0023DA
:10AE0000002BBFF35F8F51D103284FF0000438BFF0
:10AE1000012402284FD8D2E84F3F834207D10130A6
:10AE2000BFF35F8FC2E8410F19B9012002E0BFF301
:10AE30002F8F0020BFF35F8FB8BB032B4FF00004B0
:10AE400038BF0124022B36D8D2E84F0F984207D1E1
:10AE5000591CBFF35F8FC2E8431F1BB9012302E0F7
:10AE6000BFF32F8F0023BFF35F8FFBB903284FF091
:10AE7000000438BF012402281DD8D2E84F3F834286
:10AE80000BD10130BFF35F8FC2E8410F39B9012008
:10AE90000028BFF35F8F9AD007E0BFF32F8F002009
:10AEA0000028BFF35F8F3FF492AF184600F05EFBBF
:10AEB00001462046D0BD2046D0BDF0B503AF4DF8C9
:10AEC000048D82B090460D460646FDF7A6FF044667
:10AED000A7F1110007F8116C00F049FB4FF2C051C7
:10AEE000C0B2C2F2000101EB0010C0E902582046D6
:10AEF000FDF7B8FF02B05DF8048BF0BDF0B503AF0D
:10AF00002DE9000B82B01D46164607F81A0CFDF716
:10AF100084FF8046A7F11A0000F029FB814617F84C
:10AF20001A0C07F8190CA7F1190000F020FB4FF2DA
:10AF3000C052C0B20101C2F2000202EB0010565032
:10AF400041F2083C4560C4F2010C106BDCF8FC11C6
:10AF500000F00103440A81EAC35111EBC0535FFAC8
:10AF600089F044F100019C1B71EB050420D2DA1C2E
:10AF700041F1000E042837D2941B0CEB80097EEBC4
:10AF8000050438BF324622F07F42C9F838224FF418
:10AF9000803202FA00F0F21A65EB0101B2F54002CC
:10AFA00071F1000134BF4CF8040CCCF8000014E03F
:10AFB00000F11001012301F01F01032803FA01F140
:10AFC000CCF8001017D202EB00110301D1E90260A6
:10AFD0004FF0FF35D5504D60B0474046FDF742FF7A
:10AFE00002B0BDE8000BF0BD4EF6F4620421C0F2E1
:10AFF000020201F051FA4EF6E4620321C0F20202AD
:10B0000001F04AFAFFF77ABFF0B503AF2DE9000B64
:10B010004FF6006041F20439CFF6FF70C4F2010927
:10B0200059F800104FF2C056C2F20006012932D181
:10B03000002149F80010FDF7F0FE56E80C1F013121
:10B0400046E80C12002AF8D1D6E900344A0A4FF437
:10B05000400515EBC15142F100025B1A74EB02038B
:10B060003CBF4FF48033C9F80030D6E904355B1A91
:10B0700075EB02033CBF4FF40033C9F80030D6E94A
:10B080000835591A75EB02013CBF4FF48021C9F80D
:10B090000010FDF7E7FE4FF64860CFF6FF7059F855
:10B0A0000010012932D1002149F80010FDF7B5FE4A
:10B0B00056E80C1F013146E80C12002AF8D1D6E9F7
:10B0C00000354A0A4FF4400414EBC15142F100022A
:10B0D0005B1A75EB02033CBF4FF48033C9F80030B4
:10B0E000D6E904355B1A75EB02033CBF4FF400331D
:10B0F000C9F80030D6E90835591A75EB02013CBF92
:10B100004FF48021C9F80010FDF7ACFE4FF63C600B
:10B110004FF0FF38CFF6FF7059F80010012911D118
:10B12000002149F80010FDF778FE04464FF4803006
:10B13000C9F80400D6E90210C6E90088884720460D
:10B14000FDF790FE4FF64060CFF6FF7059F8001003
:10B15000012911D1002149F80010FDF75EFE0446D7
:10B160004FF40030C9F80400D6E90610C6E9048897
:10B1700088472046FDF776FE4FF64460CFF6FF7015
:10B1800059F80010012915D1002149F80010FDF7E8
:10B1900044FE04464FF48020C9F80400D6E90A10A2
:10B1A000C6E9088888472046BDE8000BBDE8F040A6
:10B1B000FDF758BEBDE8000BF0BDF0B503AF2DE9BB
:10B1C00000074FF6F85046F20834CFF6FF70C4F28D
:10B1D0000004205838B1012020604FF66C40C2F2C4
:10B1E000000000F04AFC4FF6FC504FF66C45CFF6DD
:10B1F000FF70C2F20005205820B102202060281DF7
:10B2000000F03BFC4FF60060CFF6FF70205828B1ED
:10B210000420206005F1080000F02FFC4FF60460C8
:10B22000CFF6FF70205828B10820206005F10C00EF
:10B2300000F023FC4FF60860CFF6FF70205828B1CD
:10B240001020206005F1100000F017FC4FF60C6094
:10B25000CFF6FF70205828B12020206005F114009F
:10B2600000F00BFC4FF61060CFF6FF70205828B1AD
:10B270004020206005F1180000F0FFFB4FF614603D
:10B28000CFF6FF70205828B18020206005F11C0007
:10B2900000F0F3FB4FF67460CFF6FF7021580029E1
:10B2A0005CD040F2205900212150C5F200094FF630
:10B2B0008C45D9F80080C2F20005B8F1000F21D00A
:10B2C00098FAA8F040F20076B0FA80F04FF0010A48
:10B2D000C5F200064446202843D200F01F010AFAB6
:10B2E00001F18C4356F8201021F4403146F820102B
:10B2F00005EB800000F0C1FB94FAA4F0002CB0FA3A
:10B3000080F0E8D1C9F80080D9F80083B8F1000FC7
:10B3100022D098FAA8F00126B0FA80F044461F28FF
:10B320001FD809EB80010F28D1F8E02422F4403225
:10B33000C1F8E02400F120011AD800F01F0006FA3D
:10B3400000F0844305EB810000F097FB94FAA4F031
:10B35000002CB0FA80F0E2D1C9F80083BDE8000704
:10B36000F0BD4EF660722021C0F2020201F094F8A6
:10B370004EF670720846C0F20202302101F08CF8DD
:10B38000FEE770474EF68071C0F202017047826896
:10B3900000F1080CBFF35F8F02F00303012B40F0B4
:10B3A000D8805CE8003F93420BD142F00202BFF329
:10B3B0005F8F4CE8002131B90122BFF35F8F3AB1B2
:10B3C0005BE0BFF32F8F0022002ABFF35F8F54D1C1
:10B3D00003F00301012940F0BC805CE8002F9A4291
:10B3E0000BD143F00201BFF35F8F4CE8001333B978
:10B3F0000123BFF35F8F33B13FE0BFF32F8F0023F3
:10B40000BFF35F8FCBBB02F00301012940F0A180A5
:10B410005CE8003F93420BD142F00201BFF35F8F23
:10B420004CE8001232B90122BFF35F8F32B124E041
:10B43000BFF32F8F0022BFF35F8FF2B903F0030138
:10B44000012918BF70475CE8002F9A420DD143F0E4
:10B450000201BFF35F8F4CE8001343B90123002BB7
:10B46000BFF35F8F3FF498AF07E0BFF32F8F002348
:10B47000002BBFF35F8F3FF48FAFD0F810C0DCF824
:10B480000020BFF35F8FC2605CE8003F934209D1A8
:10B49000BFF35F8F4CE8000131B90121BFF35F8F2B
:10B4A00039B155E0BFF32F8F00210029BFF35F8F23
:10B4B0004ED11A46C2605CE8003F934206D1BFF30A
:10B4C0005F8F4CE8000119B9012102E0BFF32F8F13
:10B4D0000021BFF35F8FD9BBC3605CE8002F9A42A5
:10B4E00006D1BFF35F8F4CE8000119B9012102E0DA
:10B4F000BFF32F8F0021BFF35F8F59BBC2605CE8A1
:10B50000003F934206D1BFF35F8F4CE8000119B9A9
:10B51000012102E0BFF32F8F0021BFF35F8FB9B984
:10B52000C3605CE8002F9A420AD1BFF35F8F4CE8FA
:10B53000000139B901210029BFF35F8FBAD006E0BD
:10B54000BFF32F8F00210029BFF35F8FB2D01A46BF
:10B550001AB170471A46002AFBD1DCE901100847EE
:10B5600070474EF68071C0F2020170477047007854
:10B57000704700F0C0BE80B56F464BF27351002299
:10B58000C0F2020100F018F880BDD0B502AF82B061
:10B5900008460C4600F0CFFB60B140F25600C0F206
:10B5A000000000F005FDA7F10A0127F80A0C20466B
:10B5B00000F061FC02B0D0BDF0B503AF4DF8048DD2
:10B5C0008AB090460E460546FFF7F7FBC0070ED03F
:10B5D0000C46084631464246FFF76FFC00202C74AB
:10B5E00085E84101E8600AB05DF8048BF0BD68466B
:10B5F00000F0CBFC9DF80A0002281ED09DE8070051
:10B6000003AB07C340F25800C0F2000000F0D0FCCA
:10B6100003AC06A9ADF81800204600F093FC09A879
:10B62000214600F0EFFD204600F076FC03AA06ABB1
:10B6300007CA07C306A800F0ADFC00F0BAFC086119
:10B640000268BFF35F8FCA6050E800CF944509D10C
:10B65000BFF35F8F40E8001333B90123BFF35F8F5F
:10B660003BB15BE0BFF32F8F0023002BBFF35F8F55
:10B6700054D1624606E0BFF32F8F0023002BBFF3A7
:10B680005F8F4AD1CA6050E800CF944506D1BFF31E
:10B690005F8F40E800131BB9012302E0BFF32F8F37
:10B6A0000023BFF35F8FCBBBC1F80CC050E8002F65
:10B6B000624509D1BFF35F8F40E8001333B901231E
:10B6C000BFF35F8F33B128E0BFF32F8F0023BFF3A9
:10B6D0005F8F13BBCA6050E800CF944506D1BFF31B
:10B6E0005F8F40E800131BB9012302E0BFF32F8FE7
:10B6F0000023BFF35F8F8BB9C1F80CC050E8002F57
:10B700006245B8D1BFF35F8F40E80013002BB4D17E
:10B710000123002BBFF35F8FB4D06246002A18BF0D
:10B720007047D0E901100847F0B503AF2DE9000FCD
:10B7300081B08146FFF72DFBC84658F80C5F002DFD
:10B7400000F01B8104468A46C34606E005F1180B4B
:10B75000DBF80050002D00F01081D5E90001201A1F
:10B760007AEB0100F2D3A86805F10806BFF35F8FFA
:10B7700000F00301012940F0EC8056E8001F8142EF
:10B780000BD140F00200BFF35F8F46E8000232B9F0
:10B790000120BFF35F8F38B163E0BFF32F8F00202C
:10B7A0000028BFF35F8F5CD101F00300012840F057
:10B7B000D08056E8000F88420BD141F00201BFF360
:10B7C0005F8F46E8001232B90121BFF35F8F39B1B4
:10B7D00047E0BFF32F8F00210029BFF35F8F40D1D7
:10B7E00000F00301012940F0B48056E8001F8142B7
:10B7F0000BD140F00200BFF35F8F46E8000232B980
:10B800000120BFF35F8F30B12BE0BFF32F8F0020FB
:10B81000BFF35F8F28BB01F00300012840F099803F
:10B8200056E8000F88420DD141F00201BFF35F8F4F
:10B8300046E800127AB100210029BFF35F8F3FF480
:10B8400097AF0EE0BFF32F8F00210029BFF35F8F6A
:10B850003FF48EAF05E001210029BFF35F8F3FF475
:10B8600087AF28690168BFF35F8FE96050E8002F58
:10B870008A4209D1BFF35F8F40E8005333B90123F7
:10B88000BFF35F8F3BB15FE0BFF32F8F0023002B2F
:10B89000BFF35F8F58D1114606E0BFF32F8F00230F
:10B8A000002BBFF35F8F4ED1E96050E8002F8A4232
:10B8B00009D1BFF35F8F40E8005333B90123BFF3D1
:10B8C0005F8F33B140E0BFF32F8F0023BFF35F8F53
:10B8D000D3BBEA6050E8001F914209D1BFF35F8FEC
:10B8E00040E8005333B90123BFF35F8F33B12AE03F
:10B8F000BFF32F8F0023BFF35F8F23BBE96050E8B6
:10B90000002F8A4209D1BFF35F8F40E8005333B95B
:10B910000123BFF35F8F33B116E0BFF32F8F0023F6
:10B92000BFF35F8F83B9EA6050E8001F9142B4D142
:10B93000BFF35F8F40E80053002BB0D10123002BF1
:10B94000BFF35F8FB0D01146002904BFD0E90110CA
:10B950008847A869CBF80000BFF35F8F56E8000F57
:10B9600020F0040046E800010029F7D1BFF35F8F03
:10B97000DBF80050002D7FF4F0AE0020BFF35F8FA6
:10B9800059E8004F49E800010029F9D14FF0FF3A8A
:10B99000BFF35F8F94B32546E46805F10806C5E957
:10B9A00000AABFF35F8F56E8000F20F0020146E8BF
:10B9B0000012002AF7D1C007BFF35F8FEAD0696990
:10B9C00028468847D5E9000181EA0A0180EA0A0091
:10B9D0000843DFD0BFF35F8F56E8000F40F004014B
:10B9E00046E80012002AF7D1BFF35F8F40075EBF21
:10B9F000D8F80000A861C8F80050CBE7D8F80000DC
:10BA00004FF0FF324FF0FF3328B92CE000F1180857
:10BA1000D8F8000038B3D0E9001686EA0A0581EAB2
:10BA20000A0425438C1A76EB03044FF0000438BF58
:10BA30000124002C1CBF33460A46002DE6D1816943
:10BA40000830C8F80010BFF35F8F50E8001F21F0E6
:10BA5000040140E80016002EF7D1BFF35F8FD8F83D
:10BA600000000028D7D199F8100001B0BDE8000F00
:10BA7000BDE8F040FFF7C6BA7047D0F800C0BCF18F
:10BA8000000F00F0DD80DCF808200CF10801BFF3A6
:10BA90005F8F02F00300012840F0D28051E8003FA0
:10BAA000934208D142F00200BFF35F8F41E80002E9
:10BAB0001AB9012002E0BFF32F8F00200028BFF346
:10BAC0005F8F4CD103F00300012840F0B98051E8AA
:10BAD000002F9A4208D143F00200BFF35F8F41E884
:10BAE00000031BB9012002E0BFF32F8F0020BFF33A
:10BAF0005F8FA0BB02F00300012840F0A18051E855
:10BB0000003F934208D142F00200BFF35F8F41E84B
:10BB100000021AB9012002E0BFF32F8F0020BFF30B
:10BB20005F8FE0B903F00300012818BF704751E8A8
:10BB3000002F9A420CD143F00200BFF35F8F41E81F
:10BB400000033BB901200028BFF35F8FA1D006E0BE
:10BB5000BFF32F8F00200028BFF35F8F99D0DCF850
:10BB600010100A68BFF35F8FCCF80C2051E8003F3B
:10BB7000934209D1BFF35F8F41E800C030B9012083
:10BB8000BFF35F8F38B15AE0BFF32F8F002000283A
:10BB9000BFF35F8F53D11A46CCF80C2051E8003F19
:10BBA000934206D1BFF35F8F41E800C018B901206E
:10BBB00002E0BFF32F8F00200028BFF35F8F3ED13C
:10BBC000CCF80C3051E8002F9A4206D1BFF35F8FBA
:10BBD00041E800C018B9012002E0BFF32F8F002018
:10BBE000BFF35F8F68BBCCF80C2051E8003F934255
:10BBF00006D1BFF35F8F41E800C018B9012002E011
:10BC0000BFF32F8F0020BFF35F8FC0B9CCF80C308B
:10BC100051E8002F9A420AD1BFF35F8F41E800C07C
:10BC200038B901200028BFF35F8FB5D006E0BFF31D
:10BC30002F8F00200028BFF35F8FADD01A461AB1B6
:10BC400070471A46002AFBD1D1E9012010477047FE
:10BC500080B56F4682B0006800228029019203D22D
:10BC60008DF8041001222FE002220B4662F39F138D
:10BC7000B1F5006F05D28DF80530C02343EA91116C
:10BC800020E0B1F5803F0DD28DF806308B0962F3CC
:10BC90009F13E02242EA11318DF805308DF804102F
:10BCA000032211E08DF807308B0962F39F138DF8A2
:10BCB00006300B0B62F39F13F02242EA91410422FB
:10BCC0008DF805308DF804100168D1E90001CB68CA
:10BCD00001A99847002002B080BDF0B503AF4DF830
:10BCE00004BD88B0006802AA019091E8785010461F
:10BCF0004EF69071C0F2020180E8785001A800F081
:10BD000032FF08B05DF804BBF0BD80B56F46006837
:10BD10000368D3E90003DB689847002080BD002357
:10BD2000C0E9001283724FF4006303817047D0E9C9
:10BD3000002110467047807AB0FA80F040097047C1
:10BD4000F0B503AF2DE9000B84B00DF1040E4FF0F8
:10BD500000084FF0FF334FF0000CADF80C80CDE938
:10BD60000188CE09B8EBD11F344601F07F0518BF1A
:10BD70000124B8EBD11F45EAC4140EEB03056C7027
:10BD800030D08A0BB8EB913F144606F07F0618BFFF
:10BD90000124B8EB913F46EAC414AC7025D0072BC0
:10BDA00038D04E0D4CF00309344602F07F0218BF24
:10BDB000012442EAC412EA70DEB10C0FB8EB117F25
:10BDC000224603F104030CF1040C18BF012206F013
:10BDD0007F06B8EB117F214646EAC2122A71C0D114
:10BDE0005A1C0AE09A1CE14607E003F10209DA1C3A
:10BDF00003E04CF002014A468946B9F10A0F11D21C
:10BE0000D0E9003001A9C6681846B04704B0BDE8C3
:10BE1000000BF0BD4FF2E0020A20C0F202020A213C
:10BE200000F03AFB4FF200031046C0F202030A2171
:10BE30001A4601F07CFB80B56F4682B0D0E9002045
:10BE40000978C36807F8011C791E1046012298473B
:10BE500002B080BD80B56F4682B0D0E90020D0F836
:10BE60000CC0D1E90013CDE9001310466946082241
:10BE7000E04702B080BD80B56F4682B00988802956
:10BE80000AD2D0E90020C36807F8031CF91E104647
:10BE90000122984702B080BDD0E9002041F0800324
:10BEA00007F8023CC368C80907F8010C1046B91E20
:10BEB0000222984702B080BDD0B502AF8CB00446D4
:10BEC00002904CF22F20CDE90012C0F2020003A92B
:10BED00004906846039002A8059001200A91002171
:10BEE0000B9006AACDE907014FF21000C0F2020044
:10BEF00009914EF69071069005A8C0F2020100F07B
:10BF000032FED4E900010122CB684FF21801C0F2E1
:10BF1000020198470CB0D0BDD0B502AF82B0044644
:10BF2000407A07280CD8D4E90002217AD36801228C
:10BF300007F8091CA7F1090198474FF40060208118
:10BF400002B0D0BDD0B502AF82B0098804468029C6
:10BF500008D2D4E90002D368012207F80B1CA7F12C
:10BF60000B010CE041F08003C909D4E9000207F895
:10BF70000A3CD368022207F8091CA7F10A01984776
:10BF80002046FBF7EBF802B0D0BD80B56F46FCF75A
:10BF90001DFD80BD80B56F4684B0D0E90012806879
:10BFA000039001A8CDE90112FCF734FD04B080BD77
:10BFB000704780B56F4600F001F8704780B56F4656
:10BFC0004FF219004FF27C02C0F20200C0F20202EE
:10BFD0000E2100F049FAF0B503AF4DF8048D82B0A0
:10BFE0008046887A28B1D1E90050A7F11106C468CB
:10BFF0000EE0D1E90050A7F11106C46840F201003B
:10C00000C0F20000314607F8110C28460122A04773
:10C0100098F80000314607F8110C28460122A04785
:10C0200002B05DF8048BF0BDF0B503AF4DF804BD70
:10C0300082B00446887A18B1D1E90050C6680DE094
:10C04000D1E90050A7F11101C66840F20200C0F228
:10C050000000012207F8110C2846B047208801A9EA
:10C06000ADF8040028460222B04702B05DF804BBD8
:10C07000F0BDF0B503AF4DF804BD82B00446887A38
:10C0800018B1D1E90050C6680DE0D1E90050A7F120
:10C090001101C66840F20300C0F20000012207F857
:10C0A000110C2846B04720686946009028460422B3
:10C0B000B04702B05DF804BBF0BDF0B503AF2DE9A9
:10C0C000000F83B08046907A9246894660B9DAE9DB
:10C0D00000010122CB6840F20401C0F2000107F820
:10C0E0001D1CA7F11D0198474FF0000E4FF0FF31C6
:10C0F000EC4600234C46ADF808E0CDE900EEE0093F
:10C10000BEEBD41F02460CEB010618BF012204F05F
:10C110007F05BEEBD41F45EAC212727030D0A50B6A
:10C12000BEEB943F2A4600F07F0018BF0122BEEB11
:10C13000943F40EAC210B07025D007293CD0620D70
:10C1400043F0030B104605F07F0518BF012045EAB8
:10C15000C010F070DAB1250FBEEB147F284601F154
:10C16000040103F1040318BF012002F07F02BEEBBB
:10C17000147F2C4642EAC0103071C0D14A1C0AE03C
:10C180008A1C9B4607E001F1020BCA1C03E043F046
:10C1900002005A468346BBF10A0F15D2DAE9005075
:10C1A0006946C4682846A047284641464A46A047F3
:10C1B00003B0BDE8000FF0BD4FF2E0020A20C0F26C
:10C1C00002020A2100F068F94FF200031046C0F2A3
:10C1D00002030A211A4601F0AAF980B56F4682B01F
:10C1E000887A08B102B080BDD1E900010122CB6894
:10C1F00040F20601C0F2000107F8011C791E9847C1
:10C2000002B080BD80B56F4682B0887A08B102B0B6
:10C2100080BDD1E900010122CB6840F20701C0F2E4
:10C22000000107F8011C791E984702B080BDD0E9D3
:10C230000020C368104618477047F0B503AF4DF8AB
:10C24000048D82B090460D46044600F051F8064633
:10C2500000F03FF800F055F82068B8B94FF0FF3013
:10C2600029462060201D424600F021F82068013058
:10C270002060F00706D102B05DF8048BBDE8F04005
:10C2800000F029B802B05DF8048BF0BD4FF25C10ED
:10C290004FF2F003C0F2020001AA00904EF23860A3
:10C2A000C0F20200C0F20203102100F029F9CB1CF9
:10C2B0004FF0000C23F0030380E80610591A511ABE
:10C2C00038BF6146C3E9001CC0E903C3704700BE24
:10C2D000704772B6704762B67047012101EB50009B
:10C2E0000138FDD17047BFF34F8F704700BF7047D3
:10C2F000EFF31080704740BF704700DEFEDE20BFC6
:10C30000704770470068FEE77047B0B502AF86B06F
:10C310000C46054601F0FAFCA8B90022D4E9060152
:10C3200005924FF26C13CDE90222012201924FF2E5
:10C330007012C0F20202C0F2020300926A46049335
:10C3400000F011FC10B1012006B0B0BD281D21463F
:10C3500006B0BDE8B04001F0D9BC48F613104BF66A
:10C360004D31C2F25670CAF2A4617047D1E906029B
:10C370004FF27811D368C0F202010E221847F0B5CF
:10C3800003AF4DF8048D8EB0D1E906454FF2DC11B4
:10C39000EB680646C0F202010C2220469847A8BB73
:10C3A000B06828B101904EF26F20C0F2020016E092
:10C3B000D6E90080C168404688474AF61E12C7F693
:10C3C000F26251404BF6F442CEF6C7425040084369
:10C3D00021D14EF29B20CDF80480C0F202000390E0
:10C3E00001A8029001200D9002A80C9000200B9053
:10C3F00008AA0A90022009904FF2EC10C0F2020045
:10C4000029460890204600F0AEFB20B101200EB076
:10C410005DF8048BF0BDF0684DF6A771C0F2020123
:10C4200000F10C020791CDE9051200F10801049119
:10C430004EF26321C0F2020108AACDE9020102A96D
:10C4400003200C9100210D90CDE909014FF2B410A9
:10C45000C0F202000B9108902046294600F083FBB1
:10C460000EB05DF8048BF0BD80B56F4688B0944681
:10C470004FF26C12C0F202020023CDE906016846B9
:10C48000049201226146019206AA0593CDE9023386
:10C49000009200F022F8FEDE80B56F468CB0CDE948
:10C4A000000108A90220069100210790CDE90301AF
:10C4B0004FF27020C0F20200059102904DF6A77075
:10C4C000C0F202006946CDE9090111460B9001A8AE
:10C4D000089002A800F001F8FEDE80B56F4684B037
:10C4E000CDE902014FF2CC10C0F2020001904FF2F0
:10C4F0006C10C0F202000090684601F09CFFFEDE66
:10C5000080B56F468EB08DE80F000AA90220089111
:10C5100000210990CDE905014FF28420C0F202000C
:10C52000D7F808C004904EF24B10C0F202000791F9
:10C530000D9002A80C904EF26320C0F202006146FA
:10C540000B9068460A9004A8FFF7C7FFFEDEF0B51F
:10C5500003AF2DE9000F83B0002A00F00F81D0F85F
:10C5600008B088460168914602914168019104E053
:10C57000D044B9EB0A0900F001819BF8000058B1E2
:10C5800001984EF25D61C0F202010422C368029874
:10C590009847002840F0ED804FF0000A494608E037
:10C5A000B9EB0A014FF0000038BF0146CA4500F25E
:10C5B000B98008EB0A02082907D2002900F0B180EF
:10C5C00010780A282AD1002387E0D01C20F003002D
:10C5D000801A2BD0884288BF084615180023D65CE5
:10C5E0000A2E7AD0D6180136AE4212D034780A2CF0
:10C5F0006BD00136AE420CD034780A2C69D00136AB
:10C60000AE4206D034780A2C74D001360433AE42E0
:10C61000E5D1A1F1080398420BD923E0012900F0EC
:10C62000808050780A2840D1012356E0A1F1080308
:10C630000020165815186D6886F00A34A4F10134EC
:10C6400024EA060685F00A34A4F1013424EA05053B
:10C650002E4316F0803F02D108309842E9D9884233
:10C6600000F2918088425CD00A4400EB0A0108EB9A
:10C67000010300215E5C0A2E2ED05E180136964220
:10C680004FD035780A2D1ED00136964249D03578E4
:10C690000A2D1CD00136964243D035780A2D1AD087
:10C6A000013604319642E5D13BE0022939D0907839
:10C6B0000A2801D1022310E0032932D0D0780A28B9
:10C6C0001AD1032309E0013106E0013305E002310C
:10C6D00002E0023301E003310B1803EB0A0000F122
:10C6E000010A4845BFF45CAF18F800000A287FF43F
:10C6F00057AF2FE00333F0E7042912D010790A284E
:10C7000001D10423E9E705290BD050790A2801D18A
:10C710000523E2E7062904D090790A2801D10623EF
:10C72000DBE70020CA46D1458BF8000017D918F97D
:10C730000A0010F1410F2DDD019841465246C368B1
:10C7400002989847A8B918F90A0010F1410F3FF76D
:10C750000FAF2BE00120D1458BF80000E7D819D1AD
:10C76000019841465246C3680298984700283FF412
:10C77000FFAE012003B0BDE8000FF0BD002003B004
:10C78000BDE8000FF0BD4FF20042C0F2020200F01F
:10C79000ADFEFEDE4FF2AC204946C0F202000022A0
:10C7A00000904046534601F01DF8FEDE4FF2BC20DB
:10C7B0004946C0F202005246009040464B4601F006
:10C7C00011F8FEDEF0B503AF2DE9000F8DB0044681
:10C7D0000079012600284FF001007CD125689146A0
:10C7E000D7F808B09A4662798846287840072AD454
:10C7F0004FF2D1214FF2D32CD5E90603C0F202014A
:10C80000002AC0F2020C08BF6146DB684FF002024A
:10C8100008BF0322984708BBD5E906014A46CB6802
:10C8200041469847D0B9D5E906010222CB684FF2BC
:10C830008121C0F20201984780B9DBF80C205046F4
:10C840002946904747E05AB9D5E906010322CB684B
:10C850004FF2CC21C0F20201984708B101203AE022
:10C860004FF2942B012007F8410CA7F14100C0F2D0
:10C87000020BD5E900E2D5E902C356460290E86909
:10C88000CDF82CB0D5F814B00190A86995F8201017
:10C89000D5F810A0009068468DF830104146CDE9DB
:10C8A00004E24A460A90CDE908ABCDE906C3FFF79A
:10C8B0004EFE70B94FF281216846C0F20201022299
:10C8C000FFF745FE28B9B86804A9C268304690470A
:10C8D00040B1012001262071204666710DB0BDE8EF
:10C8E000000FF0BDDDE90A010222CB684FF2CF2133
:10C8F000C0F202019847EDE7F0B503AF2DE900075C
:10C900008EB00446007A48B166680120711C20721E
:10C91000616020460EB0BDE80007F0BDD4E90056C6
:10C9200091468846287840071AD44FF2D1214FF219
:10C93000DB22D5E90603C0F20201C0F20202002E9A
:10C9400008BF1146DB684FF0020208BF012298477A
:10C950000028DAD1D9F80C20404629469047D5E77F
:10C9600066B9D5E906010222CB684FF2D921C0F29F
:10C970000201984710B101200026C7E70120D5E940
:10C9800000E107F83D0C4FF29420C0F20200D5E917
:10C9900002CA0C90A7F13D0201AB0B930392E86928
:10C9A00095F820206B6902902869AD698DF83420D4
:10C9B000D9F80C20CDE905E105A9CDE909034046E8
:10C9C0000195CDE907CA904700289ED1DDE90B010A
:10C9D0000222CB684FF2CF21C0F20201984795E7BF
:10C9E00080B56F4682B000228029019207D28DF86F
:10C9F0000410012201A9FFF7AAFD02B080BD0222A6
:10CA00000B4662F39F13B1F5006F05D28DF8053028
:10CA1000C02343EA911124E0B1F5803F11D28DF893
:10CA200006308B0962F39F13E02242EA11318DF840
:10CA300005308DF80410032201A9FFF788FD02B02C
:10CA400080BD8DF807308B0962F39F138DF8063097
:10CA50000B0B62F39F13F02242EA914104228DF8FE
:10CA600005308DF8041001A9FFF771FD02B080BDFB
:10CA7000F0B503AF4DF804BD88B0019002AA91E86B
:10CA800078504FF2E8311046C0F2020180E8785049
:10CA900001A800F068F808B05DF804BBF0BD0068BC
:10CAA000FFF755BD80B56F4682B00068002280292F
:10CAB000019207D28DF80410012201A9FFF747FD6A
:10CAC00002B080BD02220B4662F39F13B1F5006FE6
:10CAD00005D28DF80530C02343EA911124E0B1F569
